:020000040800F2
:1000000050C200205D0200082975000873680008CE
:10001000C1740008A921000815BD000800000000F7
:100020000000000000000000000000009D0100082A
:10003000812C000800000000F90100088D990008DB
:1000400077020008770200087702000877020008AC
:100050007702000877020008832C00087702000866
:1000600077020008892C00088F2C0008770200080E
:10007000B928000877020008770200087702000814
:10008000770200087702000877020008392200088A
:100090000D2200087702000877020008952C00085E
:1000A00077020008699A00087702000877020008C2
:1000B000770200087702000877020008770200083C
:1000C000770200087702000877020008770200082C
:1000D000770200087702000877020008770200081C
:1000E000770200087702000877020008770200080C
:1000F00077020008859A0008770200087702000856
:1001000077020008770200087702000877020008EB
:1001100077020008770200087702000877020008DB
:1001200077020008DD280008E9280008AD2B000848
:1001300077020008770200087702000845230008CC
:100140007702000819230008770200082D750008BF
:10015000B92B0008C52B0008D12B0008CDA0000842
:10016000770200087702000877020008770200088B
:1001700077020008770200087702000800000000FC
:100180007702000877020008DFF80CD001F05EF972
:100190000048004789E6000850C200202C4B19682F
:1001A0000868B0E8F04F80F30988BFF36F8F4FF015
:1001B000000080F3118870470000000008480068C4
:1001C000006880F308884FF0000080F3148862B65E
:1001D00061B6BFF34F8FBFF36F8F00DF00BF00BF6B
:1001E00008ED00E0DFF80C00016841F470010160E7
:1001F000704700BF88ED00E0EFF30980BFF36F8F19
:10020000134B1A681EF0100F08BF20ED108A20E96A
:10021000F04F106009B44FF0500080F31188BFF325
:100220004F8FBFF36F8F0FF07DFD4FF0000080F315
:10023000118809BC19680868B0E8F04F1EF0100F6B
:1002400008BFB0EC108A80F30988BFF36F8F704746
:1002500000030020EFF30580704700000648804748
:1002600006480047FEE7FEE7FEE7FEE7FEE7FEE79B
:10027000FEE7FEE7FEE7FEE74D9A00088901000869
:100280009FED1A1AF5EE000A40EE010ABDEEE00AF3
:10029000F5EEC00A10EE100AF1EE10FA38BF401E5B
:1002A00000EE100A1349F7EE001AB8EEC00A30EE5D
:1002B000C00ADFED0F0A20EE200AFCEEC00A10EEA5
:1002C000900AC0F3080000EE900A01EB8000F8EEFF
:1002D000600A90ED011A70EE600A90ED000A71EE6E
:1002E000E01A21EE800A00EE810A704783F9223E6F
:1002F00000000044E80C0108DFED190AB5EEC00A61
:1003000060EE200ABDEEE01A11EE100AF1EE10FACE
:1003100038BF401E00EE100A1349F7EE001AB8EE7F
:10032000C00A30EEC00ADFED0F0A60EE200ABCEE14
:10033000E00A10EE100AC0F3080000EE100A01EB0C
:100340008000B8EE400A90ED011A70EEC00A90ED00
:10035000000A71EEE01A21EE800A00EE810A704771
:1003600083F9223E00000044E80C010870B40588BF
:100370000E884468D1F804C05368B54208D140885B
:100380004988884201BF11888D425188884203D034
:1003900070BC6FF00200704705FB00F1880827D0A1
:1003A00094ED001ADCED000A94ED010ADCED011A6F
:1003B00031EE201AD4ED020A70EE211A9CED020AE9
:1003C00083ED001AC3ED011A94ED031ADCED031A54
:1003D00030EE800A401E71EE210A83ED020A04F11C
:1003E0001004C3ED030A03F110030CF1100CD7D174
:1003F00011F0030030D0B0F1004F30D200282BDDD7
:10040000211F1B1FACF1040210F0010F0AD091ED67
:10041000010AD2ED010A091D121D30EE200A83EDFA
:10042000010A1B1D400817D091ED010AD2ED010A07
:10043000401E30EE200A83ED010A91ED020AD2ED52
:10044000020A01F1080102F1080230EE200A83EDF0
:10045000020A03F10803E7D170BC00207047B4EC36
:10046000010A401EFCEC010A30EE200AA3EC010A4E
:10047000F5D1F1E701804280436070472DE9F34FE9
:1004800084B0049840680090486801900498B0F8DF
:1004900000E04588DFEDFE0A00200290B0EE600A21
:1004A000AE4506D108884988884204BF7146864512
:1004B00004D06FF0020006B0BDE8F08F01985FEA4B
:1004C000010C18BFB7EE001A3DD000BFBEEB0C0107
:1004D00017D0B1F1004F80F01F82002911DD021FFB
:1004E00011F0010F1CBFC2ED010A121D4B1006D006
:1004F000C2ED010AC2ED020A08325B1EF8D100EB20
:100500008100BCF10102A0EC011A19D0B2F1004F38
:1005100080F00882002A13DD031F12F0010F1CBFB8
:10052000C3ED010A1B1D511008D000BFC3ED010A25
:10053000C3ED020A491E03F10803F7D100EB820064
:10054000BCF1010CC2D14FF000080395002D14BF7F
:10055000B0EE602A002000F0BF8100BF009908FBC8
:1005600005F001EB800B0199DBED002A01EB800027
:100570000346F0EE421AC64552D9AEEB0802ABEB89
:10058000850112F0010F17D001EB850191ED000AF2
:10059000B5EEC00AF1EE10FA07DDB4EEE10AF1EEB5
:1005A00010FA09DDF0EE401A06E0B1EE400AF4EE72
:1005B000C01AF1EE10FAF5D3521031D001EB850CD0
:1005C0009CED000AB5EEC00AF1EE10FA05DDB4EEBE
:1005D000E10AF1EE10FA09DD06E0B1EE400AF4EEB0
:1005E000C01AF1EE10FA01D2F0EE401A01EBC5018B
:1005F00091ED000AB5EEC00AF1EE10FA05DDB4EE99
:10060000E10AF1EE10FA09DD06E0B1EE400AF4EE7F
:10061000C01AF1EE10FA01D2F0EE401A521ECDD1FE
:10062000F5EEC01AF1EE10FA00F07381F5EEC02A73
:100630000126F1EE10FA0099D4BFB1EE620AB0EED5
:10064000620AB4EE610AF1EE10FA1CBFAEEB0802CA
:10065000B2F1010C47D005FB08F201EB820292EDEA
:10066000001A00BFB0EE410A05FB06F4B5EEC00A61
:1006700000EB8404F1EE10FACCBFF0EE400AF1EE8C
:10068000400AF4EE610AF1EE10FA28D1B5EB080C3D
:1006900011D0BCF1004F7DD2BCF1000F0BDD00BFCB
:1006A00092ED000AD1ED000ABCF1010CE2EC010A66
:1006B000A1EC010AF4D129000ED0B1F1004F6AD2A9
:1006C000002909DD94ED000AD0ED000A491EE4EC92
:1006D000010AA0EC010AF5D1012002900BE0761C82
:1006E000BCF1010CBED10298012804D0F5EEC02A5D
:1006F000F1EE10FA7ED09BED000AB5EB08009A46A9
:100700005946064622D0B0F1004F74D200281DDDB4
:10071000091F10F0010F06D0F0EE400A80EEA01A7B
:1007200081ED011A091D401010D000BFD1ED010A62
:10073000401E80EE801A81ED011A91ED021AC1EE81
:10074000000AC1ED020A01F10801EFD1280026D00C
:10075000B0F1004F7ED2002821DDAAF1040110F093
:10076000010F06D0D1ED010A80EE801A81ED011A49
:10077000091D401013D000BFD1ED010A401E80EECC
:10078000801A81ED011AD1ED020A80EE801A81ED06
:10079000021A01E0CBE0D6E001F10801ECD1DDE97D
:1007A00000124FF000095FEA0E0773D0C14504BF85
:1007B00001EB860102EB850274D091ED000ADC4664
:1007C0005046330035D01C46B6F1004F7ED2002C87
:1007D0002FDD0B1FABF1040C16F0010F0FD0F0EE64
:1007E000400ADCED011AB0EE601A00EEE11A83ED6A
:1007F000011A01E08DE0B1E01B1D0CF1040C741036
:1008000015D000BFD3ED010A9CED011A40EE410A5C
:10081000C3ED010AD3ED020A9CED021A0CF1080C9B
:1008200040EE410AC3ED020A0833641EEAD101EB2F
:1008300086012B0036D0B3F1004F72D2002B31DD90
:10084000A2F1040CAAF1040013F0010F0CD0DCEDAE
:10085000010A00E08BE090ED011A001D40EE410A14
:10086000CCED010A0CF1040C5C1019D0DCED010A8E
:1008700090ED011A40EE410ACCED010ADCED020ACE
:1008800090ED021A083040EE410ACCED020A03E076
:10089000000000000DE005E0641E0CF1080CE5D13D
:1008A00002EB830201EB88017F1E09F101097FF44D
:1008B0007DAF009808F10108001D00900398401ECC
:1008C00003907FF44BAE0299012900E058E004BF89
:1008D00006B0BDE8F08F00BFB5EEC00AF1EE10FA29
:1008E0007FF4E9AD04990EFB05F3002B4A684FF045
:1008F00000010BD902EB810C9CED000AB5EEC00A99
:10090000F1EE10FA02D1491C8B42F3D88B427FF4EE
:10091000D2AD6FF00400CEE5E0EC010A491EFBD138
:10092000EFE538E0E0EC010A521EFBD108E692ED5B
:10093000000AD1ED000ABCF1010CE2EC010AA1ECC5
:10094000010AF4D1B7E694ED000AD0ED000A491E81
:10095000E4EC010AA0EC010AF5D1BDE6D1ED000AF4
:10096000401E80EE801AA1EC011AF7D1EEE6D3ED1D
:10097000000A401E80EE801AA3EC011AF7D10EE7A0
:10098000BCEC011AD1ED000A5B1E40EE410AE1EC1D
:10099000010AF5D14DE7B0EC011AD2ED000A5B1E59
:1009A00040EE410AE2EC010AF5D17BE72DE9F04F78
:1009B00082B0466853680193058847884B880020B9
:1009C00000900888874201BFB2F800C06545528890
:1009D00093421EBF6FF0020002B0BDE8F08F9FEDA2
:1009E000412A4FEA970EC7F3400B00BFDDE9000232
:1009F00002EB800A4A6898464FF00009B0EE420ABE
:100A0000B4465FEA0E0025D092ED001ADCED001A24
:100A100002EB8302DCED010A01EE810A92ED001A7D
:100A200002EB8302401ED2ED001A02EB830200EEBD
:100A3000810A9CED021ADCED030A00040CF1100C93
:100A4000000C01EE210A92ED001A02EB830200EE87
:100A5000810AD9D117F0030026D0ACF10404A2EB2F
:100A6000830210F0010F08D002EB8302D4ED010ADB
:100A700092ED001A241D00EE810A5FEA0B0013D0EC
:100A800002EB830CD4ED010A9CED001A02EBC302C9
:100A9000401E00EE810AD4ED020A92ED001A04F124
:100AA000080400EE810AEBD109F10100AAEC010A69
:100AB0001FFA80F9486800EB8902A8F101001FFACB
:100AC00080F8B8F1000F99D1009806EB870618441A
:100AD00080B20090681E05042D0C87D102B0002062
:100AE000BDE8F08F0000000070B405880E884468EF
:100AF000D1F804C05368B54208D14088498888427B
:100B000001BF11888D425188884203D070BC6FF0BC
:100B10000200704705FB00F1880827D094ED001A09
:100B2000DCED000A94ED010ADCED011A31EE601AE9
:100B3000D4ED020A70EE611A9CED020A83ED001AF0
:100B4000C3ED011A94ED031ADCED031A30EEC00A6E
:100B5000401E71EE610A83ED020A04F11004C3ED38
:100B6000030A03F110030CF1100CD7D111F00300AC
:100B700030D0B0F1004F30D200282BDD211F1B1FD9
:100B8000ACF1040210F0010F0AD091ED010AD2ED90
:100B9000010A091D121D30EE600A83ED010A1B1DBA
:100BA000400817D091ED010AD2ED010A401E30EE47
:100BB000600A83ED010A91ED020AD2ED020A01F109
:100BC000080102F1080230EE600A83ED020A03F127
:100BD0000803E7D170BC00207047B4EC010A401E46
:100BE000FCEC010A30EE600AA3EC010AF5D1F1E752
:100BF0002DE9F04F02884768B0F802804888D1F8A4
:100C0000049082B04FF0000A1646824207BF09885E
:100C100088456FF0020002B018BFBDE8F08F4FEAC0
:100C2000980B02EB42000190C8F34000CDF80000A1
:100C300009EB8A01BBF1000F33D0019801EB820C64
:100C400001EB80043B46E64601EBC2054FEA0B0090
:100C500093ED000A401E81ED000A93ED010A01EBBD
:100C600002118CED000A93ED020A0CEB021C85EDDB
:100C7000000A93ED030A05EB021584ED000A04EB6C
:100C8000021403F11003E3D10EEB820000EB8200AB
:100C900000EB8201ABF10100504307EB0B1701EBB6
:100CA000001118F0030C21D03B1FA1EB82011CF0B6
:100CB000010F06D093ED010A01EB82011B1D81EDAE
:100CC000000A009880B100BF93ED010A01EB820495
:100CD00001EBC20184ED000A93ED020A401E81ED92
:100CE000000A03F10803EFD107EB8C070AF10100BA
:100CF0001FFA80FA701E0604360C99D102B000204B
:100D0000BDE8F08F2DE9F05F0546002092469B4636
:100D100088460646814640241BE028464146474611
:100D2000224600F0C6FA53465A46C01A914110D3E3
:100D300011461846224600F0ADFA2D1A67EB01085D
:100D40004F4622460120002100F0A4FA17EB0009CB
:100D50004E41201EA4F10104DFDC484631462A46FC
:100D60004346BDE8F09F2DE9F0410024061B2546CF
:100D700071F1000605DA01240027D0EB070067EBCC
:100D80000101161E73F1000605DA0027D2EB0702F7
:100D9000012567EB0303FFF7B5FF86460E461746AE
:100DA0009C46AC4204D00025D0EB050E65EB010655
:100DB00024B10020D2EB000760EB030C70463146F3
:100DC0003A466346BDE8F08140EA01039B0703D041
:100DD00009E008C9121F08C0042AFAD203E011F87A
:100DE000013B00F8013B521EF9D27047D2B201E03C
:100DF00000F8012B491EFBD270470022F6E710B520
:100E000013460A4604461946FFF7F0FF204610BD78
:100E1000421C10F8011B0029FBD1801A70472DE9F4
:100E2000FE4F804681EA0300C00F0C46009021F07F
:100E3000004123F00045B8EB0200A94105D240462D
:100E4000214690461C460B46024623F000401043C4
:100E500047D0270DC7F30A00C3F30A510290401A86
:100E6000019040286BDAC3F3130040F4801B009814
:100E7000924620B10023D2EB030A63EB0B0B0198DF
:100E80005946C0F14002504600F004FA06460D46AD
:100E900050465946019A00F01CFA10EB08006141D7
:100EA000002487EA115284EAE7731A4340D0009A7B
:100EB00062B3019A012A4FEA075215DC001B61EB6D
:100EC00002014FF0004202EA0752CDE90042001C45
:100ED00041F5801132462B4600F053FA03B0BDE8CD
:100EE000F08F40462146F9E7001B61EB0201001C30
:100EF00041F5801300185B412018A2F5001747EB5D
:100F0000030140EAD570B6196D4111E06D084FEA52
:100F1000360645EAC0754FEA0752001B61EB020135
:100F2000001C41F5801149084FEA30000019514179
:100F300032462B4603B0BDE8F04F00F013BA0098DC
:100F4000012240000023D0EB020263EBE073009823
:100F500021464FEAE074B8EB000061EB0401E9E7D9
:100F600083F000435BE781F0004158E72DE9FE4F35
:100F700081EA030404F0004421F0004100944FF0A2
:100F8000000B23F0004350EA01045ED052EA030450
:100F90005BD0C3F30A54C1F30A552C44A4F2F334D2
:100FA0000194A0FB0254C1F3130141F48011C3F377
:100FB000130343F4801301FB024400FB034E840A35
:100FC000970A44EA815447EA8357A4FB07680295CD
:100FD0008D0A05FB07854FEA932C04FB0C5427056B
:100FE000029D4FEA065847EA1637B5EB08056EEB47
:100FF000070C870E920E47EA811742EA8312A7FB7D
:101000000201B6EB0B0164EB00042B0D43EA0C3339
:101010005E1844EB1C50DA465146E7FB0201C5F36B
:1010200013044FEA0B3343EA14534FEA0432019C92
:1010300043EA0603A4F10C040294009CCDE900B439
:1010400000F09FF903B0BDE8F08F00200146F9E7FA
:101050002DE9F04D81EA030404F0004B21F0004536
:1010600014464FF0000A23F0004150EA050220D058
:1010700054EA01021DD0C5F30A570246C5F3130313
:10108000C1F31300C1F30A5640F4801543F48013F2
:10109000A7EB0608101BD64608F2FD3873EB0500D7
:1010A00002D308F1010801E092185B41B8F1000F8A
:1010B00003DA00200146BDE8F08D00204FF48011D6
:1010C000064684460EE0171B73EB050705D3121B7B
:1010D00063EB050306434CEA010C49084FEA300074
:1010E00092185B4150EA0107EDD152EA030012D099
:1010F00082EA040083EA0501084305D0101BAB41D6
:1011000006D20122002306E000224FF0004302E055
:101110006FF0010253101AEB06004CEB085110EB74
:101120000A0041EB0B01BDE8F04D00F01BB9F0B433
:10113000CA17CB0F50405140C61841F100054FEA85
:10114000C372314628004FF0960303D0B623F0BC9B
:1011500000F0DAB830460021F9E70EB5C10F80EA99
:10116000E0700844CA07002140F233438DE80E00C6
:101170000A460B4600F005F903B000BD0EB540F27B
:10118000334102910021CDE900110A460B4600F0DF
:10119000F8F803B000BD70B5C1F30A5201F0004584
:1011A0000024C1F3130140F2FF3341F480119A424D
:1011B00001DA002070BD40F233439A42A2F233427A
:1011C00003DC524200F075F800E090402C43F1D06F
:1011D000404270BD00F0004230F000400AD0C10D26
:1011E00001F56071C0F3160042EA0151C2084007E0
:1011F00011437047002001467047000030B5041EBF
:1012000071F1000404DB4FF00044404264EB010143
:10121000141E73F1000405DB1C464FF000435242DC
:1012200063EB04038B4208BF824230BD30B5041E1D
:1012300071F1000404DB4FF00044404264EB010113
:10124000141E73F1000405DB1C464FF000435242AC
:1012500063EB0403994208BF904230BD01F00043A4
:1012600030B421F0004150EA010206D00A0DA2F587
:101270006072C1F31301002A02DC30BC0020704709
:10128000440F44EAC104C100E01830BC00EBC25076
:1012900000F031B8202A04DB203A00FA02F10020E5
:1012A00070479140C2F1200320FA03F319439040A4
:1012B0007047202A04DB203A21FA02F0002170470F
:1012C00021FA02F3D040C2F12002914008431946AE
:1012D0007047202A06DBCB17203A41FA02F043EA96
:1012E000E07306E041FA02F3D040C2F120029140DF
:1012F0000843194670470029A8BF7047401C4900A1
:1013000008BF20F00100704710B4B0FA80FC00FA6A
:101310000CF050EA010404BF10BC704749B1CCF195
:10132000200421FA04F411FA0CF118BF0121214321
:101330000843A3EB0C01CB1D4FEA00614FEA1020DC
:1013400042BF002010BC704700EBC350104400297E
:10135000A4BF10BC7047401C490008BF20F001002A
:1013600010BC704710B5141E73F1000408DA401C5D
:1013700041F1000192185B411A4301D120F00100B4
:1013800010BD2DE9F04D92469B4611B1B1FA81F2A4
:1013900002E0B0FA80F220329046FFF77BFF04466D
:1013A0000F4640EA0A0041EA0B0153465A460843F9
:1013B00013D0114653EA010019D0C8F1400250463B
:1013C000FFF777FF05460E46504659464246FFF75F
:1013D00061FF084305D0012004E020463946BDE8FE
:1013E000F08D0020054346EAE0762C4337430A9807
:1013F0006305E40AA0EB08000022FD0A44EA475412
:101400000A3002D500200146E9E7010510196941BB
:10141000DDE9084500196941BDE8F04DA2E770B566
:1014200021F0004303430CD0C1F30A550024D5EB4F
:10143000040564EB0403D617AD1AB34102DB0020A8
:10144000014670BD201841EB025170BD064C074D9E
:1014500006E0E06840F0010394E807009847103484
:10146000AC42F6D3FEF794FEFC1501081C160108E9
:101470002DE9F04D00231A461B1A8A4103DB002098
:101480000146BDE8F08DC1F30A52C1F3130141F4E6
:1014900080154FF0000BD10702D100186D41521E8C
:1014A0000027044640F2FF11384601EB620A3E462F
:1014B0008046024600204FF48011FFF7FAFEC21961
:1014C0007141BB1846EB0100B4EB030C75EB000C4B
:1014D00004D3E41A65EB000517460E46241908F1FB
:1014E00001006D4180463428E3DDF91946EB060022
:1014F000091BA84103D24FF0FF32134601E000223E
:1015000013461BEB070046EB0A51BDE8F04DFFF711
:1015100029BF70B58C1810F8015B15F0070301D1D5
:1015200010F8013B2A1106D110F8012B03E010F846
:10153000016B01F8016B5B1EF9D12B0705D4002369
:10154000521E0DD401F8013BFAE710F8013BCB1A0B
:10155000921C03E013F8015B01F8015B521EF9D500
:10156000A142D8D3002070BD464910B54A6822F484
:1015700040324A604A6843681A434A6001684A68D0
:1015800022F480724A6001684A68036942EA0322D1
:101590004A6001684A6822F040724A6001684A68FD
:1015A00083681A434A6001688A6822F400628A608C
:1015B00001688A68C3681A438A60816A6FF0706242
:1015C000D14201688A6822F070628A6001688A6884
:1015D0000CD0836A1A438A6001688A6822F04052FC
:1015E0008A6001688A68C36A1A4301E022F04052A7
:1015F0008A6001688A6822F002028A6001688A684B
:10160000037E42EA43028A6090F8201000290168B4
:101610004A680FD042F400624A6001684A6822F4C6
:1016200060424A6001684A68174C436A04EB4333DE
:101630001A4301E022F400624A600168CA6A22F497
:101640007002CA620168CA6A838B104C04EB0353B0
:101650001A43CA6201688A6822F400728A600168CB
:101660008A6890F8303042EA43228A6001688A68CA
:1016700022F480628A6001688A68406942EA8020B8
:10168000886010BD0023014000E0FFFF0000F0FF74
:101690000AF07CBB0AF010BCFEF7F2BDF0EE400A87
:1016A000F5EEC00AF1EE10FA02DDB0EE600A704706
:1016B000B1EE600AFBE70000002803D09FED020AAC
:1016C00080ED000A7047000000000000002803D0F1
:1016D0009FED020A80ED000A70470000DF8FB441E1
:1016E00070B52DED0C8B84B006460C4615469FED6B
:1016F000990AF0EE408A9FED970AB0EE409A9FED6E
:10170000950AF0EE40BA9FED930AF0EE409A9FEDF5
:10171000910AB0EE40AA0EB104B11DB904B0BDECFF
:101720000C8B70BD8C48FFF7C7FF8C48FFF7CEFFCE
:101730008A48D0ED000A9FED8A1A60EE810AB0EE69
:10174000600A00F031F9F0EE408A28EEA80AF0EEC7
:10175000408A8248D0ED000AB0EE001A60EE810A9D
:101760009FED7F1A60EE810AB0EE600A00F01CF96E
:10177000B0EE409A29EE090AB0EE409ADFED790A00
:10178000B7EE000A00EEA80ADFED770A00EEC90AFC
:10179000DFED760A20EE200A754880ED000A6E48DB
:1017A00090ED000ADFED730A80EE201AB7EE000A12
:1017B00031EE000A20EE000A6D48D0ED000A80EEFE
:1017C000801A6D4880ED001A94ED000AB5EEC00A4B
:1017D000F1EE10FA0DD194ED010AB5EEC00AF1EE6A
:1017E00010FA06D194ED020AB5EEC00AF1EE10FA35
:1017F00046D09FED580AB0EE408A0020019002903A
:101800000390D4ED000A60EEA00A94ED011AD4ED25
:10181000011A41EE210A94ED021AD4ED021A41EEAA
:10182000210AB0EE600A00F0A9F8B0EE408A94ED0B
:10183000000A20EE080A8DED010A94ED010A20EE5F
:10184000080A8DED020A94ED020A20EE080A8DEDD9
:10185000030ADDED010AF1EE600AB0EE600AFFF75F
:1018600017FFF0EE409A9DED031AF0EE410A9DED50
:10187000021AB0EE410AFFF70DFFB0EE40AA07E0F2
:101880009FED340AF0EE409A9FED320AB0EE40AA86
:1018900095ED000AB5EEC00AF1EE10FA0DD195ED06
:1018A000010AB5EEC00AF1EE10FA06D195ED020A72
:1018B000B5EEC00AF1EE10FA3CD0B0EE690A00F0C5
:1018C00073F8B0EE408AB0EE690AFFF7E5FEB0EEBD
:1018D00040DAB0EE4A0A00F067F8F0EE40AAB0EE47
:1018E0004A0AFFF7D9FEB0EE40BA28EE2A0AD5ED33
:1018F000010A20EE200AD5ED000A0DEE200A68EE5E
:101900000B0A95ED021A00EE810AB0EE40CA95ED81
:10191000010A20EE0B0AD5ED020A0AEEE00AF0EE0B
:1019200040CAF0EE6C0AB0EE4C0AFFF7B3FEF0EEE0
:1019300040BA03E09FED070AF0EE40BAB0EE4A1A53
:10194000F0EE690AB0EE6B0A30460BF0AFFC00BF58
:10195000E4E60000000000000C0400201004002059
:1019600035FA8E3CC1BFAD3B9DF8C5362F7C1C417E
:1019700014040020506CC24A1804002010EE100A13
:10198000F6EE000A074960EE200AA1EB600000EEC7
:10199000100A20EE801AF7EE080A41EE400A20EE07
:1019A000800A7047DF59375FFEF7A6BC2DE9F0418A
:1019B0002DED028B9AB00546B0EE408A0E461746D2
:1019C0009846002017901890199014901590169032
:1019D0004DB146B13FB1B8F1000F04D0B5EEC08AA9
:1019E000F1EE10FA05D100201AB0BDEC028BBDE873
:1019F000F08196ED000A8DED170A96ED010A8DED46
:101A0000180A96ED020A8DED190A97ED000A8DED80
:101A1000140A97ED010A8DED150A97ED020A8DED76
:101A2000160A17AA14A928460BF092FA402104A816
:101A3000FFF7E3F90020009001900290039000244A
:101A400017A904A80DF0AAFE00BF30E004A800EB1F
:101A5000041090ED000AD5ED000A20EE200A04A83B
:101A600000EB0410D0ED010A95ED011A00EE810A99
:101A700004A800EB0410D0ED020A95ED021A00EE66
:101A8000810A04A800EB0410D0ED030A95ED031AB7
:101A900000EE810A20EE080AF0EE000A80EE201A1D
:101AA000684600EB840080ED001A601CC4B2042C70
:101AB000CCDB002410E005EB840090ED000A6846C2
:101AC00000EB8400D0ED000A30EE200A05EB840024
:101AD00080ED000A601CC4B2042CECDB28460DF03B
:101AE0004DFB012080E7000070B590ED050A80ED08
:101AF000060A90ED0F0A80ED100A816D91ED020A41
:101B000080ED050A91ED000AB1EE400A80ED0F0A62
:101B10000CF012FA0CF044FA0CF05CF906460CF0EA
:101B200019FA1F4D1F4C6428687002D94FF0170036
:101B300002E002D24FF00D00E06096ED000A1A4874
:101B400084ED050A96ED010A84ED060A96ED020A77
:101B500084ED070A96ED030A84ED080A007820B1A7
:101B6000012804D0022804D005E00A2002E01E204B
:101B700000E0282020600B2060601620A06008484C
:101B8000801C0CF0FBF9688808B90F20688080B2CF
:101B900000EE100AB8EE400A84ED040A70BD0000A1
:101BA000DC01002070300020FD01002070B50C46E3
:101BB0003A4905462DED028B0422A1F5347005F05B
:101BC000F7FF364904221031A1F5337005F0F0FF1C
:101BD000324904222031A1F5327005F0E9FF2F4986
:101BE00004223031A1F5317005F0E2FF0CF092F9DA
:101BF00045F8580F002028710CF0A2F9F7EE008A82
:101C0000A860C4ED218A28799FED258A00EE100A8C
:101C10002248B8EE400AB43884ED220A84ED238AC3
:101C2000C4ED248A90F85C00FFF7A8FA41EC100B91
:101C30009FED1C1B0AF068FA9FED1C1B51EC100B6A
:101C400053EC112BFFF792F9FFF708FBC4F8C4001F
:101C5000287900EE100AB8EE400A84ED320A9FEDB2
:101C6000150AC4ED338A84ED290A84ED2A8A84EDAD
:101C70002B8A84ED2C0A84ED2D0A84ED2E8A84EDC6
:101C80002F8A84ED300AC4ED258A84ED268A84EDFE
:101C9000278AC4ED288ABDEC028B70BD94300020E9
:101CA00000000000000000000000004000000000F4
:101CB0000000E03F6F12833A70B53C493C4C012074
:101CC000087094ED030A04F1640084ED040A00F145
:101CD0001C0194ED0D0A0C3084ED0E0A2EC980E82B
:101CE0002E00606820600CF07EFD60602178401A54
:101CF00084F85C0004F170002E4990ED030AD0EDE9
:101D0000020A30EE600AD0ED010A30EE601A90ED62
:101D1000000A31EE401A11EE100A88423FDA84EDD3
:101D2000030AC4ED0D0AA4F50770403405F012FF54
:101D3000207FF0EE400A00EE100AA4F51270B8EE13
:101D4000401A80EE810A04ED090A05F003FF207FA6
:101D500000EE900AA4F50D70F8EE600A80EE201AED
:101D600004ED081A14ED030A05F0F4FE207FF0EEEE
:101D7000400A00EE100AA4F50870B8EE401A80EE92
:101D8000810A84ED010A05F0E5FE207F00EE900A4D
:101D9000F8EE600A80EE201A84ED021A70BD9FED05
:101DA000060A84ED030A84ED0D0A70BDDC010020F3
:101DB000E02F00206F12033B0000000001221021E1
:101DC000014802F097BA00000000024000221021F2
:101DD000014802F08FBA0000000002407047000086
:101DE00001221146014802F085BA000000040240B9
:101DF00000220121014802F07DBA000000040240E7
:101E000030B5437804781B021BB2234300EE103A2E
:101E1000194CB8EEC00AD4ED000A20EE200A81ED7C
:101E2000000AC37885781B021BB22B4300EE103AE0
:101E3000D4ED000AB8EEC00A20EE200A81ED010AB6
:101E4000437904791B021BB2234300EE103AB8EE2B
:101E5000C00A20EE200ADFED090A81ED020AD0F85F
:101E6000060020F07F4000EE100AB8EE400A20EE97
:101E7000200A82ED000A30BDB001002000401C4263
:101E800070470CF09DBC0BF0CBBE000010B5427843
:101E90000378120212B21A4300EE102A124BB8EE67
:101EA000C00AD3ED010A20EE200A81ED000AC278B3
:101EB0008478120212B2224300EE102AD3ED010AF6
:101EC000B8EEC00A20EE200A81ED010A42790079BD
:101ED000120212B2024300EE102AB8EEC00A20EE3F
:101EE000200A81ED020A10BDB001002010B5FFF7F5
:101EF00075FFFFF7C5FF0BF027FC08B1802402E057
:101F00000BF08EFB04460BF0EDFD10B144F04000E9
:101F100010BD0BF079FD204310BD00002DE9FC4100
:101F20000746002016460D4600900190FFF74EFF31
:101F3000922000F0BDF806226946122000F09AF8BF
:101F4000FFF73CFF9DF801009DF80010000200B271
:101F5000084300EE100A464CB8EEC00AD4ED000A61
:101F600020EE200A85ED000A9DF803009DF802107E
:101F7000000200B2084300EE100AD4ED000AB8EEE9
:101F8000C00A20EE200A85ED010A9DF805009DF8A3
:101F90000410000200B2084300EE100AB8EEC00AB6
:101FA00020EE200A85ED020AFFF722FF082269468B
:101FB000002000F05FF8FFF713FF9DF800000F28E6
:101FC00030D19DF803009DF80210000200B20843D2
:101FD00000EE100AD4ED010AB8EEC00A20EE200A85
:101FE00087ED000A9DF805009DF80410000200B27C
:101FF000084300EE100AD4ED010AB8EEC00A20EE44
:10200000200A87ED010A9DF807009DF806100002DE
:1020100000B2084300EE100AB8EEC00A20EE200A13
:1020200087ED020AFFF7D2FEA22000F041F802225B
:102030006946222000F01EF8FFF7C0FE9DF8000060
:102040009DF80110C00040EA5110B0F5806F01DB2F
:10205000A0F5006000EE100AB4EE001AF8EEC00A17
:10206000B3EE070A00EE810A86ED000ABDE8FC81A6
:10207000B001002070B514460D4640F0800000F01D
:1020800017F806E0552000F013F8641E05F8010B60
:10209000E4B2002CF6D170BD10B50C4640F08000C3
:1020A00000F006F8552000F003F8207010BD000085
:1020B00001B582B04FF47A700090012301AA02A901
:1020C000024803F057FD9DF804000EBDBC0B002034
:1020D00002784078D20042EA5010B0F5806F01DB00
:1020E000A0F5006000EE100AB4EE001AF8EEC00A87
:1020F000B3EE070A00EE810A81ED000A704710B5C1
:102100000C46FFF7D5FF2046BDE81040FFF7D0BFD3
:102110002DED028B8CB00BF073FE044668460BF07D
:10212000EBFE02A901A80BF0EDFE0BF00DFF4FF442
:102130007A700CF045FB9FED1B8A68460BF0DCFEC5
:1021400002A901A80BF0DEFE0BF0FEFE00EE100A65
:10215000BDF80000202100EE900AB8EE400AF8EE2B
:10216000600ACDED030ADDED010ACDED040ABDF8EC
:10217000080000EE900AF8EE600ACDED050A8DED3C
:10218000060A608800EE100A03A8B8EE400AC0EE06
:10219000080ACDED070A0DF093F901200CF010FBB1
:1021A000CBE7000000007A44FEE700000068A0F5DD
:1021B0000070063805D00B2802D1088802494880F3
:1021C000704702480BF0AABEC0000020F02C00208F
:1021D00000B58BB000200121CDE9060103900891E4
:1021E000049000900E21019002900991059069469B
:1021F000054801F065FA0221034801F0EBF90248B5
:1022000001F078FD0BB000BD180B002010B5074B96
:10221000074A0021074801F0DAFA04490448FFF7A9
:10222000C5FFBDE81040034801F045BB2C0000206D
:10223000802D0020180B0020014801F03CBB00005D
:10224000180B002010B50068A0F5007001380AD006
:1022500001280BD002280CD004283AD11D48BDE833
:1022600010400BF05BBE1B483C30F8E71948463085
:10227000F5E7184856300BF051FE164A56321088D2
:102280001189401A01B2B1F5805F02DDA1F500515C
:1022900004E011F5805F02DA01F5005109B2D2E9DC
:1022A00004404942CB17611858410B4BC2E9041056
:1022B000CB1A50F1004305DA4FF48014E302641A9C
:1022C000834106DB4FF48013C91840F10040C2E996
:1022D000041010BDFA2C00200000F0FF00B58BB0F8
:1022E00000200121CDE90601009001900290CDE986
:1022F00003010E20CDE9081005906946054801F05C
:10230000DFF91021034801F065F9024801F0F2FC01
:102310000BB000BD400B002010B5074B074A012150
:10232000074801F054FA04490448FFF78BFFBDE861
:102330001040034801F0BFBA2C000020802D00207F
:10234000400B0020014801F0B6BA0000400B00200D
:10235000F0B40E4C4FF40476049D26600026A6606F
:10236000E660082626610A4C20706170100AA07091
:10237000E270180A20716371280AA071231FE571A9
:10238000F0BC1A1D0149034801F036B9682D002040
:10239000A0000020180B0020094940F2FF120A603B
:1023A00000228A60CA6008220A610649020AA1F175
:1023B00014030A7048700A460149034801F01CB929
:1023C000682D0020B0000020400B002030B40D4BE1
:1023D0004FF400741C6000249C60DC6008241C61C5
:1023E000094B040A1C705870080A9870D970100ABA
:1023F00018715A7130BC1C3B034A0249034801F072
:10240000FBB80000682D0020B8000020400B002021
:10241000094940F2FF120A6000228A60CA6008225D
:102420000A610649020AA1F10C038A70C8700A46C3
:102430000149034801F0E0B8682D0020A800002001
:10244000180B0020002070470020704710B50BF0DB
:102450009BFD0649002208600549064808F060F81F
:102460000549044808F04FF8002010BD98000020EE
:10247000C41D0020E8100020C415002010B504463B
:102480000146054808F03FF8034808F015F82046D3
:102490000BF0EAFD002010BDE8100020002070477E
:1024A000094A10B5D2F8BC22D2F814220AB1012090
:1024B00010BD0A460146044808F032F8BDE8104055
:1024C000014808F0A7B80000E81000202DE9F84FF7
:1024D00000287CD0DFF8E4910023DFF8E8817B4C12
:1024E00099F800C0764F98F80060DFF8DCB12478E6
:1024F0001D46194641F2504E4FF0010A1A46BCF1F2
:10250000010F03D0BCF1000F0BD000E016B1012E7B
:1025100011D013E03A70012C01D06D4926E06D49CD
:1025200024E0012E0AD13A70012C02D040F6B831D5
:102530001CE071461AE0BCF1010F03D056EA0C060C
:102540000BD013E087F800A0634E88F8002089F8CC
:1025500000203260614E326008E09BF80960032E73
:1025600012D03A7088F8002089F80020BBF8146077
:1025700036B3F70714D0012C09D040F6E443584F86
:102580003F78012F05D00BE087F800A0EAE77346FB
:10259000F5E7DFF850C1022743F2C8238CF800703A
:1025A000B70702D5012C34D04F4B770702D5012C49
:1025B00031D04E4D360703D5012C2FD040F698056B
:1025C0008468E68803EBC6031BB2A68800E06EE0D1
:1025D00005EBC60566892DB201EBC601A0F8E43211
:1025E000434F09B2A0F8E652A0F8F0127E68768850
:1025F00000EE106AB8EE401ADFED3E0ADFF8F88010
:1026000081EE200A10EE10CAC4450ADA87F800A04D
:1026100018E0304BC9E7344DA63DCBE740F68A556C
:10262000CEE700EE106ADFF8D4C0B8EE401A81EEB3
:10263000200A10EE106A664501DD3A7020E03A7813
:10264000012A1DD140F6C4125642934202DDA0F881
:10265000E42203E0B34201DAA0F8E4624FF4FA6343
:102660009D4202DC5B429D4201DAA0F8E6329142D3
:1026700002DDA0F8F02203E0B14201DAA0F8F06236
:102680001F4A237A91889579C1F34701022B02D121
:10269000627A022A0DD0627A5AB1B0F9F022009221
:1026A000B0F9E632B0F9E4222846FFF751FEBDE862
:1026B000F88F43F6982213460092F5E7F8010020C0
:1026C000FA010020F90100209C2D0020FB010020D0
:1026D00048F4FFFFB0EBFFFF0402002008020020D7
:1026E00000020020FE0100201CF3FFFF68F7FFFF3F
:1026F000EC01002000007A440000584100008841AD
:10270000084300202DE9F04104462DED028B042002
:1027100004EBC001401E91ED0A0B002881ED0C0B6B
:1027200091ED000B81ED020BF2DC94ED001B224FCA
:1027300084ED021B53EC112B97ED000B51EC100BA9
:10274000FEF714FC012507F12808C4E90C0100BFBD
:1027500004EBC50608EBC50096ED0C1B90ED000BD5
:1027600053EC112B51EC100BFEF700FC41EC180B55
:1027700007EBC50096ED020B90ED001B53EC102B00
:1027800051EC110BFEF7F2FB94ED0C1B53EC112BEB
:10279000FEF745FB53EC182BFEF7E2FB6D1C052DF5
:1027A000C4E90C01D4DB94ED0C0B84ED160BBDECED
:1027B000028BBDE8F0810000200100202DE9F041EE
:1027C00004462DED048B042004EBC001401E91ED66
:1027D0000A0B002881ED0C0B91ED000B81ED020B33
:1027E000F2DC94ED000B2F4F84ED020B53EC102B19
:1027F00097ED001B51EC110BFEF7B8FB012507F11B
:102800002008C4E90C0100BF04EBC50608EBC500B5
:1028100096ED0C1B90ED000B53EC112B51EC100BB3
:10282000FEF7A4FB41EC180B07EBC50096ED021B6D
:1028300090ED000B53EC112B51EC100BFEF796FBB7
:1028400094ED0C1B53EC112BFEF7E9FA53EC182B0B
:10285000FEF786FB9FED148B9FED159B6D1C042DE1
:10286000C4E90C01D0D394ED0C0B53EC182B51ECB4
:10287000100BFEF7DBFC02D284ED0C8B0AE094ED2A
:102880000C0B53EC192B51EC100BFEF7B7FC01D2DB
:1028900084ED0C9B94ED0C0B84ED160BBDEC048BBE
:1028A000BDE8F0817001002000000000000024401D
:1028B00000000000000024C010B5054801F04EFAE9
:1028C00005F088F9BDE810400249034805F0B8B9A1
:1028D000800F00209C2D0020B22D0020014801F027
:1028E0003DBA0000E00F00202DE9F05FA748A84B9B
:1028F000A84CC06CA64DA74EA54F0068A449DFF8B0
:102900009492DFF88CA2DFF88CB2DFF884E2A14A5F
:10291000483B603418351836303F09F178090AF120
:10292000300A4FF4006C0BF1300BAEF1180E8842F8
:1029300023D99749543926E0A84233D14FF02008D3
:102940000AE0504535D1E04606E000BF4FF40018DC
:1029500002E000BF4FF0006811EA080F7CD08C49FC
:10296000884253D9904205D0984203D0A04201D06A
:10297000A8422FD14FF0200C45E08649A83188426B
:1029800003D983495839096805E0824948318842AA
:102990008149F8D949689042D0D09842CED0A0421F
:1029A000CCD0C9E7B042CED0B842CCD04845CAD08E
:1029B000C7E75845CAD07045C8D0DFF8D88108F1BC
:1029C00090084045C2D0DFF8C88108F1480840456A
:1029D000C0D1BBE7B04216D0B84214D0484512D09F
:1029E000504510D0584509D0704507D069499031FD
:1029F000884203D066494831884202D14FF4001C16
:102A000001E04FF0006C62484C382AE06149A8317F
:102A1000884229D9904205D0984203D0A04201D0E3
:102A2000A84202D14FF0200C19E0B04217D0B842B2
:102A300015D0484513D0504511D0584509D07045A0
:102A400007D054499031884203D0514948318842D7
:102A500003D14FF4001C02E095E04FF0006C4C48AD
:102A60005038C0F800C052E04A494831884227D95E
:102A7000904205D0984203D0A04201D0A84202D192
:102A80004FF0200C18E0B04216D0B84214D04845A0
:102A900012D0504510D0584509D0704507D03D4957
:102AA0009031884203D03A494831884202D14FF4EC
:102AB000001C01E04FF0006C3748C0F80CC026E065
:102AC000904205D0984203D0A04201D0A84202D142
:102AD0004FF0200C18E0B04216D0B84214D0484550
:102AE00012D0504510D0584509D0704507D029491B
:102AF0009031884203D026494831884202D14FF4B0
:102B0000001C01E04FF0006C2348C0F808C0234CC3
:102B1000207880070CD5207820F0020020702078E3
:102B200040F004002070012211461D4801F0E2FB34
:102B300060781C4D80070CD5607820F00200607032
:102B4000607840F00400607001221021284601F0F6
:102B5000D1FBA07880070CD5A07820F00200A070EF
:102B6000A07840F00400A07001221021284601F056
:102B7000C1FB0BF085FA2078400704D50A480168AC
:102B800041F001010160BDE8F09F0000BC0B002096
:102B90005864024010600240006002402C02002095
:102BA0000004024000000240103C0140014801F0D6
:102BB000D5B80000740C0020014801F0CFB8000027
:102BC000C00E0020014801F0C9B8000040100020EC
:102BD000014801F0C3B80000200F0020016818234D
:102BE000CAB2103AB2FBF3F2054B6FF30901032AA4
:102BF0009B5CC36500D9091D8165084670470000CC
:102C0000BC0C010810B5014600208B698A6A4FF0A0
:102C1000C07453B1B3F5005F15D072B1012A0CD066
:102C2000022A0AD0032A09D104E01AB1012A06D0E7
:102C3000022A03D1C96AC90100D5012010BDC96AA1
:102C4000A142FAD010BD002AF7D0012AF2D0022A00
:102C5000F3D0032AF3D010BD30B50468256825F4FD
:102C600080252560046863608368402B036803D077
:102C700099600068C26030BD9A600068C16030BD74
:102C80007047012001F02ABA082001F027BA10206D
:102C900001F024BA202001F021BA0000024A0020ED
:102CA000C2E9040070470000502D002072B6FEE714
:102CB0002DE9F047264C94F86E01002846D04FF4D9
:102CC0007A650027204606F057FC4FF000084FF4C5
:102CD000487906E01E4806F04FFC17B1012F08D0D6
:102CE00010E094ED010AB5EEC00AF1EE10FA09D039
:102CF000012794ED010AB5EEC00AF1EE10FA16D1E3
:102D0000761CB6B24E4513D39FED120A84ED270A06
:102D100084ED240A84ED250A84ED260A84ED120A46
:102D200084ED0F0A84ED100A84ED110A07E00026F5
:102D300001200BF045FD6D1E2D042D0CCAD1FFF7AF
:102D4000ADFF0020C4E9160084F86E81BDE8F0876D
:102D5000384100200000000070B58AB015460E46CC
:102D600004460922694613480AF0DEFF002368463C
:102D700001E0032B08D200EB830191ED000A04EB84
:102D8000830181ED000A0EE000EB8301062B91ED3B
:102D9000000A04D206EB830101ED030A03E005EB10
:102DA000830101ED060A5B1CDBB2092BE1D30AB0FB
:102DB00070BD000000000A08E8B1D0ED071AC0EDB0
:102DC000081AD0ED061AC0ED071A9FED432A434AB0
:102DD00070EE820A30EE020AC0ED040A80ED050AA8
:102DE00030EEC00ADFED3E0A10EE101A914205DD0A
:102DF00030EE600A09E09FED3B0A704710EE101AB2
:102E0000394A914201D930EE200A80ED060A017854
:102E100011B101292DD05CE090ED010AD0ED060A38
:102E200060EE201AC0ED0C1A90ED0D0A90ED022A0A
:102E300002EE200A80ED0D0AD0ED030A20EE811A81
:102E400080ED0E1AD0ED100AB4EEE00AF1EE10FAA1
:102E500006DCF1EE600AB4EEE00AF1EE10FA01D2FF
:102E6000C0ED0D0A90ED0D0A31EE800A30EE010A38
:102E70001DE0F0EE400A30EEE10AD0ED011A20EE3E
:102E8000210A80ED0C0AD0ED021A61EEA00AC0ED15
:102E90000D0AD0ED031A30EE200A21EE811A80EDE2
:102EA0000E1A30EE010AD0ED0F0A30EE200A80ED46
:102EB0000F0AD0ED110AB4EEE00AF1EE10FA06DCCA
:102EC000F1EE600AB4EEE00AF1EE10FA01D2C0EDC4
:102ED0000F0A90ED0F0A7047DB0F4940DB0F4940A6
:102EE000DB0FC94000000000DB0F49C010B5040033
:102EF00031D0A06890ED000AB1EE400A84ED040ADA
:102F000090ED020A84ED320A606890ED000A84EDCB
:102F1000060AD4ED0A0A04F0D5FA84ED060A6068C0
:102F200090ED020A84ED340AD4ED380A04F0CAFAAE
:102F300084ED340AE068B4F8BC10008804F0DCFAD0
:102F400084ED080AD4F8C400B4F87411008804F0C1
:102F5000D3FA84ED360A10BD10B504462DED028B70
:102F60000AF03CFFE0600AF04FFFC4F8C4000AF02A
:102F70002DFF60600AF0CEFFA0600AF0E1FF206044
:102F80000BF006F8C4F878010BF006F89FED288ADC
:102F9000C4F8C000F3EE0E1AB0EE482A9FED251AD1
:102FA000DFED250A9FED250A002104F1E40004F07D
:102FB000FBFBDFED238AB0EE482AF0EE481AB2EEB2
:102FC0000A1AF0EE680AB2EE080A002104F59670BB
:102FD00004F0EAFBB0EE482AF3EE0E1A9FED191A40
:102FE000DFED190A9FED190A002104F12C0004F00D
:102FF000DBFBB0EE482AF0EE481AB2EE081AF0EE0B
:10300000680A9FED130A002104F1740004F0CCFB60
:1030100084ED0A8A84ED388A40F60250A4F8BC0098
:1030200040F23650A4F87401BDEC028B10BD0000D4
:10303000000000000060EA4500007A450050C346E9
:10304000CDCC4C3F0000FA4500C0DA4500F0D24636
:103050009A99414110B5044690ED041AD0ED070A43
:1030600090ED060A7430FFF7A7FE94ED2C0A04F1E8
:103070002C00F1EE400AC4ED050A94ED040A04F0B8
:1030800013FBD4ED350A94ED340A1B4970EEC00AE7
:1030900010EE900A884206DC10EE900A174988422A
:1030A00001D884ED350A94ED321AD4ED350A04F5D1
:1030B0009670FFF781FE94ED5A0AD4ED320A30EE95
:1030C000600A10EE100AFEF785F80D4AC2E9000109
:1030D0001046FFF773FB94ED320AD4ED5A0A04F15F
:1030E000E40030EE600ADFED070A84ED330ABDE844
:1030F000104004F0D9BA000017B7D13817B7D1B8CB
:1031000008360020000000002DE9F05F04462DED98
:103110000A8B0068A94F4188B0F900B049420EB24D
:103120003946B7F90C00B1F90E5000B9A5B3FEF756
:1031300014F89FEDA38B53EC182BFDF717FFDFF866
:103140008882C8E900012846FEF707F853EC182BDF
:10315000FDF70CFF08F16002C2E900014046FFF7ED
:10316000D1FA08F16000FFF7CDFA5846FDF7F5FFF8
:1031700098ED168B53EC182BFDF751FEFEF70BF86C
:103180000FFA80FB3046FDF7E8FF53EC182BFDF7F4
:10319000E7FEFEF700F806B22568687ADFED8BBA25
:1031A00028B9C4ED09BA94ED340A84ED350A687A79
:1031B0009FED879B9FED88ABDFF82492DFED898A36
:1031C000DFF824A29FED89BA9FED898A032801D0F8
:1031D000022844D13046FDF7C0FF53EC192BFDF710
:1031E00037FF41EC1C0BE069FDF7F4FF53EC1C2B9F
:1031F000FDF7B6FEFEF732F8E061484502DDC4EDAA
:10320000078A03E0504501D984ED07BA5846FDF717
:10321000A4FF53EC1A2BFDF71BFF41EC1C0BD4F859
:10322000D400FDF7D7FF53EC1C2BFDF799FEFEF7FA
:1032300015F800EE100A6F4910EE100A84ED350AF9
:10324000884203DD30EE480A84ED350A10EE100A9C
:103250006949884203D930EE080A84ED350A687A54
:10326000DFF89881012802D0F87C012803D1644B53
:103270001878012804D098F80000012841D08EE089
:10328000604994ED060AD1ED0D0A30EE600A10EEA9
:10329000100A84ED070A484502DDC4ED078A05E0FF
:1032A00010EE100A504501D984ED07BAD4ED340A66
:1032B00091ED030A0022404670EEC00AB5EEC00A46
:1032C000C4ED350A1A700123F1EE10FA88F80030C7
:1032D0000BD191ED0D0AB5EEC00AF1EE10FA04D152
:1032E0004949896811F1814F02D0A8F8022008E00D
:1032F0004188491C09B2A8F80210642901DBC4ED19
:1033000007BA687A01284AD0F87C012847D03046AD
:10331000FDF723FF53EC192BFDF79AFE41EC190B37
:10332000A069FDF757FF53EC192BFDF719FEFDF7C8
:1033300095FFE061484502DDC4ED078A03E0504592
:1033400001D984ED07BA5846FDF707FF53EC1A2B55
:10335000FDF77EFE41EC190BD4F8D000FDF73AFFE3
:1033600053EC192BFDF7FCFDFDF778FF00EE100A7A
:10337000204910EE100A84ED350A884203DD30EE54
:10338000480A84ED350A10EE100A1B49884203D919
:1033900030EE080A84ED350A002088F80000787ABB
:1033A000022806D1387A022803D194ED340A84ED3C
:1033B000350ABDEC0A8BBDE8F09F00009C2D002073
:1033C00000000000000008406836002000000000F7
:1033D00000000000006A084100000000006AF84098
:1033E000CDCCCC3ECDCCCC3E6666E6BE6666E6BEB7
:1033F000DB0FC940DB0F4940DB0F49C0F40100205F
:10340000DC010020E02F00205030002078B500249F
:10341000009490F83C20012A19D0012280F83C2029
:103420000A6807230568092A13D9EE680A3A02EBED
:10343000420293409E43EE600B788A680A3B03EB9E
:1034400043039A400368DD682A43DA6010E00220F3
:1034500078BD2E6902EB420293409E432E610B78A9
:103460008A6803EB43039A4003681D692A431A6183
:103470004A681F23072A13D205686E6B521E02EB9F
:10348000820293409E436E630B790A885B1E92B260
:1034900003EB83039A4003685D6B2A435A6327E07A
:1034A00005680D2A12D22E6BD21F02EB82029340C6
:1034B0009E432E630B790A88DB1F92B203EB8303D2
:1034C0009A4003681D6B2A431A6311E0EE6A0D3AB5
:1034D00002EB820293409E43EE620B790A880D3B19
:1034E00092B203EB83039A400368DD6A2A43DA62EF
:1034F000164B0568144A9D4206D10D68122D03D162
:10350000556845F48005556005689D4218D10B68E3
:10351000102B01D0112B13D1536843F400035360D7
:10352000096810290CD10A490A4A0968B1FBF2F16D
:1035300001EB8101490000E0491E00910029FBD107
:1035400080F83C40002078BD00230140002001406D
:10355000FC02002040420F0070B504004FF000054F
:1035600003D0206C002610B107E0012070BD20467A
:1035700000F01CF8666484F83C60206CC00610D42F
:10358000206C20F4885040F0020020642046FDF7B3
:10359000EBFF6664206C20F0020040F00100206424
:1035A00000E0012584F83C60284670BD08B500683D
:1035B0000649884208D10648016841F480710160DB
:1035C000006800F48070009008BD000000200140F9
:1035D0004438024090F82020012A07D0022A05D062
:1035E000416A41F4802141620120704700684269CC
:1035F0000A43426100207047F0B590F820500468FB
:10360000A468012D05D0022D03D0416A41F4802128
:1036100053E014F0406F01D1E5004BD5C4F30164D1
:10362000022C03D9416A41F4000146E00125A5407E
:103630001D608D684FF4C0739DB1CE6835434E68F0
:1036400045EAC605066803EB0417F5514FF4C27549
:10365000076805EB04150E697E51097D012905D027
:1036600009E00E88CD6845EA4655EBE701684E59FA
:1036700046F480764E511179D2F805504FF4C67653
:1036800041EA0525016806EB04168D511178D2F840
:1036900001204FF4C47541EA0221026805EB0415CC
:1036A0005151006803EB0411425842F001024250AC
:1036B0000020F0BD416A41F4001141620120F0BDDB
:1036C00010B590F82020012A07D0022A05D0416ABF
:1036D00041F480214162012010BD3B48D0F8002216
:1036E00042F00102C0F80022D0F8002222F47C52FD
:1036F000C0F80022D0F800224B6A42EA0322C0F848
:1037000000220A7D02F01F0301229A40D0F81C32E9
:103710009343C0F81C32CB69B3B9D0F80C32934351
:10372000C0F80C328C894B6864F31F434C6900EB82
:10373000C404C4F840320C890B6864F31F434C691D
:1037400000EBC404C4F84432CB69012B16D1D0F885
:103750000C321343C0F80C320C884B6864F31F43DF
:103760004C6900EBC404C4F840320C89CB6864F3A4
:103770001F434C6900EBC404C4F844328B69002B2E
:10378000D0F804320ED01343C0F804320B69002B7A
:10379000D0F8143208D01343C0F81432096A012952
:1037A00004D008E09343EFE79343F5E7D0F81C1209
:1037B0001143C0F81C12D0F8001221F00101C0F82A
:1037C0000012002010BD000000640040704730B5BA
:1037D00090F82040012C05D0022C03D0416A41F41E
:1037E00080215DE00468002955D02469A40754D0E5
:1037F0004FF4D874056804EB01142D5915F0040535
:10380000956005682D594ED0ED08556005682C5916
:1038100004F00204D4604FF4DA74056804EB011478
:103820002D5905F00F05156105682D59C5F30725BC
:10383000956105682C59240C54614FF4DC720468BE
:1038400002EB0112A4581C700468A458240A5C708E
:103850000468A458240C9C700468A258120EDA70F4
:103860004FF4DE72046802EB0112A4581C71046864
:10387000A458240A5C710468A458240C9C71046840
:10388000A258120EDA71006881B1016941F020017D
:103890000161002030BDE468A8E7416A41F40011ED
:1038A0004162012030BD6D0D1560AFE7C16841F088
:1038B0002001C160EDE72DE9F05F054600680024B6
:1038C0004669D0F804908768D0F80CB0D0F810A002
:1038D000D0F81880F10748D0F90714D00121816091
:1038E000B80703D5284600F032FA0CE0780702D575
:1038F0004FF4006407E0380702D54FF4805402E02B
:10390000284600F023FAF80516D529684FF4807090
:103910008860B80503D5284600F01BFA0CE078054E
:1039200002D544F4005407E0380502D544F480443D
:1039300002E0284600F00CFAF80316D529684FF487
:1039400080308860B80303D5284600F004FA0CE004
:10395000780302D544F4004407E0380302D544F468
:10396000803402E0284600F0F5F9300707D55FEA19
:10397000CB6004D52968102044F40074C860700737
:103980004FF0080707D55FEA0B7004D52868C760B9
:10399000284600F0A9F9B00706D52868C068800756
:1039A00002D0284600F0A1F9700607D55FEACA6088
:1039B00004D52968102044F480640861B00607D556
:1039C0005FEA0A7004D528680761284600F08EF97E
:1039D000F00606D528680069800702D0284600F066
:1039E00086F9B00308D55FEAC96005D529681020BB
:1039F0004860284600F07CF9F00307D55FEA0970BB
:103A000004D528684760284600F0A6F9300446D55A
:103A10005FEA497040D5F00504D55FEAC87001D06F
:103A200044F00104B00504D55FEA887001D544F084
:103A30000204700504D55FEA487001D544F004041F
:103A4000300529D518F0700F26D008F070004028F6
:103A500015D006DC102809D020280AD0302816D12D
:103A60000AE050280ED0602811D10EE044F008047E
:103A70000DE044F010040AE044F0200407E044F0B4
:103A8000400404E044F0800401E044F480742868B9
:103A9000816921F070018161296804204860002C4F
:103AA00005D0686A204368622846FFF78FFEBDE8AC
:103AB000F09F70B5040003D094F8200010B104E02A
:103AC000012070BD204600F081F82068016841F0B7
:103AD0000101016000F014FC0546052604E000F039
:103AE0000FFC401B0A2811D820684068C007F6D098
:103AF0002068016821F00201016000F001FC054628
:103B00000BE000F0FDFB401B0A2806D9606A40F478
:103B10000030606284F82060D2E720684068800747
:103B2000EFD4207E0128206801683DD021F080017B
:103B30000160607E01282068016838D021F04001D2
:103B40000160A07E01282068016833D021F02001A7
:103B50000160E07E0128206801682ED041F010014C
:103B60000160207F01282068016829D021F0080128
:103B70000160607F01282068016824D021F00401E1
:103B80000160D4E902010843D4E904121143084357
:103B90006168491E08432168C861002060620120F5
:103BA00084F82000002070BD41F08001C0E741F0A2
:103BB0004001C5E741F02001CAE721F01001CFE73D
:103BC00041F00801D4E741F00401D9E7F0B587B02E
:103BD000044614216846FDF710F93E4B3E48DFF8D5
:103BE000F0E01968D4F800C03B4A032502260927F3
:103BF00010300024491CF4452AD11960012907D14D
:103C0000016841F000710160006800F000700590EB
:103C1000106840F0080010601068CDE9005600F010
:103C20000800CDE9047069462C48CDE9024500F052
:103C300061FA00220621132000F08AFE132000F012
:103C400079FE00220621142000F082FE14203AE0C2
:103C5000DFF88CE0F44538D1D0F800C04CF0806C2F
:103C6000C0F800C0D0F800C001290CF0806CCDF87D
:103C700014C0196007D1016841F00071016000684B
:103C800000F000700590106840F0020010601068AD
:103C900002AB00F0020005906020CDE9000683E849
:103CA000B00069460F4800F025FA002206213F20A7
:103CB00000F04EFE3F2000F03DFE00220621412094
:103CC00000F046FE412000F035FE07B0F0BD0000D8
:103CD000006400402800002030380240000C024000
:103CE000006800400004024070477047704770470A
:103CF0007047000070B5044690F82000012804D0F9
:103D0000606A40F40020606218E0022084F820001D
:103D10002068016821F00101016000F0F1FA054618
:103D20000EE000BF00F0ECFA401B0A2808D9606AD8
:103D300040F400306062052084F82000012070BD4E
:103D400020684068C007EDD1606270BD7047704761
:103D50007047704770477047704700002DE9F8437F
:103D600004464FF00009CDF8009063484FF4165117
:103D7000A56D0068B0FBF1F72E6894F85C10082080
:103D800000FA01F131420FD021680A6852070BD5C1
:103D90000A6822F004020A6094F85C108840A86067
:103DA000606D40F00100606594F85C104FF0010810
:103DB00008FA01F0304208D021684969090604D5A3
:103DC000A860606D40F00200606594F85C1004200B
:103DD0008840304208D021680968890704D5A86066
:103DE000606D40F00400606594F85C10102088401D
:103DF000304218D021680968090714D5A8602068E6
:103E00000168490304D50068000308D5A16C07E0E8
:103E10000168C90503D4016821F008010160216C23
:103E200009B12046884794F85C1020208840304231
:103E300031D021680968C9062DD5A86094F83500ED
:103E400005282068016806D0490347D500680003AB
:103E50001DD4616C1CE021F01601016020684169ED
:103E600021F080014161206C08B9A06C20B120686C
:103E7000016821F00801016094F85C103F2088403F
:103E8000A86084F8358084F83490216D1FE0E16BE0
:103E900009B120468847606D00282BD0606DC007AF
:103EA00014D0052084F835002068016821F0010154
:103EB00001600098401C0090B84203D82068006858
:103EC000C007F6D184F8358084F83490E16C00297D
:103ED00010D001B02046BDE8F04308470168C9058D
:103EE000D5D4016821F01001016084F8358084F890
:103EF0003490CCE7BDE8F883FC0200202DE9F041C6
:103F0000044600F0FDF906465CB1022084F8350055
:103F1000002584F834502068016821F00101016017
:103F20000DE00120BDE8F08100F0EAF9801B0528D2
:103F300005D920206065032084F83500F2E7206869
:103F40000068C007F0D12268116820480140D4E918
:103F500001031843D4E90336334318436369184314
:103F6000A3691843E3691843236A18430843616A45
:103F7000042903D1D4E90B131943084310602068C6
:103F80004069666A20F0070130460E430127042885
:103F90000CD1A06A0643E06A40B12046FEF732FE2B
:103FA00020B14020606584F83570BAE7206846612A
:103FB0002046FEF713FE94F85C203F21914081607B
:103FC000656584F835700020ACE700003F8010F094
:103FD0002DE9F0410446866D90F834000025012853
:103FE0000DD0012084F8340094F835700020012FA2
:103FF00007D084F8340002252846BDE8F08102206D
:10400000FBE7022784F8357060652046FEF724FE42
:1040100094F85C103F208840B0602068016841F04F
:1040200016010160206C20B12068016841F0080190
:1040300001602068016841F001010160DCE70000D7
:1040400070B5044600F05CF90546601C02D00448D7
:104050000078044400F054F9401BA042FAD370BD2C
:10406000F002002010B51B4C10281AD0202821D0B7
:1040700008282AD0012813D10CF030FA01280FD0DB
:1040800004F1100160690BF073FD2069002807D06E
:1040900011494FF080500860BFF34F8FBFF36F8F0F
:1040A00010BD607840F001006070A07840F0010021
:1040B000A07003E0207840F00100207020790028F3
:1040C000EED0BDE8104009F0DBBFE07840F0010021
:1040D000E07010BD2C02002004ED00E0044910B592
:1040E0000A68024202D00860FFF7BCFF10BD000062
:1040F000143C01402DE9F84FDFF8BCA10022012556
:1041000003264FF00F090AF1040BAAF1040E00BFB9
:104110000B6805FA02F42340A34270D10F7907F02F
:104120000307012F01D0022F16D187684FEA4208FA
:1041300006FA08FC27EA0C07D1F80CC00CFA08FCB8
:104140004CEA070CC0F808C04768A7430C79C4F3D1
:10415000001494403C4344600C79E443A4070AD023
:10416000C4684FEA420C06FA0CF7BC438F6807FAA2
:104170000CF72743C7600C7904F00304022C12D11A
:10418000D40800EB840CDCF820405707FF0E09FA36
:1041900007F824EA0804D1F8108008FA07F848EA7A
:1041A0000408CCF8208004684FEA420C06FA0CF7A9
:1041B000BC430F7907F0030707FA0CF727430760A2
:1041C0004C6814F4403F70D03C4C276847F480475B
:1041D0002760246822F0030704F480440094384CDC
:1041E00007EB040CDCF8084897074FEA177809FA40
:1041F00008F7BC43334FB84202D1002724E054E013
:10420000314FB84201D101271EE0304FB84201D1F1
:10421000022719E02E4FB84201D1032714E02D4F99
:10422000B84201D104270FE02B4FB84201D1052736
:104230000AE02A4FB84201D1062705E0284FB842CC
:1042400001D1072700E0082707FA08F72743CCF831
:104250000878DAF800405746D1F804C09C435FEA7A
:10426000CC2C00D51C433C60DBF800405F46D1F805
:1042700004C09C435FEA8C2C00D51C433C60DEF8F4
:1042800000407746D1F804C09C435FEA8C3C00D5DF
:104290001C433C60084F083F3C68D1F804C09C4375
:1042A0005FEACC3C00D51C433C60521C102AFFF452
:1042B0002FAFBDE8F88F0000083C014044380240B1
:1042C00000300140000002400004024000080240AB
:1042D000000C02400010024000140240001802408E
:1042E000001C0240426921EA02030A4043EA0241FB
:1042F000816170470AB1816170470904FBE70000E2
:104300000148806870470000F002002070B504008A
:1043100025D094F83D00002520B984F83C50204673
:1043200000F04CFA242084F83D002068016821F058
:10433000010101602068016841F4004101602068CA
:10434000016821F40041016001F02EF94D4A6168D5
:10435000914201D84C4900E04C49884201D20120E9
:1043600070BD4B492368B0FBF1F15E6826F03F0653
:104370000E435E606368934206D94FF496735943C7
:104380004FF47A73B1FBF3F12368491C1E6A26F0DF
:104390003F06314319626168914210D84900401EBE
:1043A000B0FBF1F2521CC2F30B02042A01D204202A
:1043B00022E0B0FBF1F0401CC0F30B001CE0A2684F
:1043C000F2B301EBC10303EB0116431EB3FBF6F39B
:1043D0005B1C43F480431B0549D092B301EBC1023F
:1043E00002EB0111401EB0FBF1F0401CC0F30B00CA
:1043F00040F4804040F400402168CA694CF6FF73E5
:104400009A431043C861D4E9071001432068026849
:1044100022F0C00211430160D4E903010143206886
:10442000826848F2FF339A4311438160D4E9050161
:1044300008432168CA6822F0FF021043C86001E007
:104440000EE016E02068016841F00101016025647A
:10445000202084F83D00256384F83E50002070BD84
:1044600001EB4106431EB3FBF6F35B1CB3E70120EF
:10447000C2E701EB4101401EB0FBF1F0401CC0F36C
:104480000B00B7E7A086010080841E0000093D00F4
:1044900040420F002DE9FF4F83B09A46DDE91197A6
:1044A00093460446DDF84080FFF72AFF054694F85E
:1044B0003D00202870D11923012271492046009522
:1044C00002F0E8FA0028F5D194F83C00012863D006
:1044D000012084F83C0020680168C90703D1016805
:1044E00041F0010101602068016821F40061016070
:1044F000222084F83D00402084F83E0000262664F7
:10450000C4F82480A4F82A90608D20855D48E0627C
:10451000CDE9007553465A462046049902F0C2F987
:1045200000287CD1208DD0B1012821D0022820681C
:1045300024D0416980690090208D032869D8012822
:104540002BD0514902283B464FF00002009559D02C
:104550008846204602F09EFA002860D13CE02068A0
:10456000416981690091016841F40071016077E05F
:104570002068016821F480610160F0E7016821F49E
:10458000806101602068016841F400610160206879
:1045900041698069009063E06FE02A463946204611
:1045A00002F0F7FA98BB20680069616A08704EE073
:1045B0002068016841F40071016020680069616A47
:1045C0000870606A401C6062218D491E2185618DE2
:1045D000491E6185216838E02068016821F4806106
:1045E000016020680069616A0870606A401C60624E
:1045F000208D401E2085608D401E60853B46002238
:1046000041460095204602F045FA00B9D0E706E0A1
:10461000FFE72A463946204602F0BBFA18B10120CE
:1046200007B0BDE8F08F20680069616A0870606AB1
:10463000401C6062218D491E2185618D491E618566
:1046400021684A69D24352070AD409690170606A35
:10465000401C6062208D401E2085608D401E60855C
:10466000208D00287FF468AF202084F83D0084F876
:104670003E6084F83C600020D2E70220D0E70000D2
:10468000020010000000FFFF040001002DE9FF4FB1
:1046900083B09A46DDE9119793460446DDF84080E1
:1046A000FFF72EFE054694F83D0020287FD1192300
:1046B000012240492046009502F0ECF9002876D10D
:1046C00094F83C00012872D0012084F83C00206856
:1046D0000168C90703D1016841F001010160206848
:1046E000016821F400610160212084F83D00402030
:1046F00084F83E0000262664C4F82480A4F82A909A
:10470000608D20852C48E062CDE9007553465A46FD
:104710002046049902F044F970B930E02A4639463F
:10472000204602F069FA58B1206C042804D12068B0
:10473000016841F400710160012007B0BDE8F08F0D
:10474000606A216800780861606A401C6062218D9F
:10475000491E89B22185628D521E62852268536985
:10476000DB435B070BD469B100781061606A401CC1
:104770006062208D401E2085608D401E6085208DEA
:104780000028CBD12A463946204602F05DF90028A0
:10479000CAD154F83D0B016841F40071016020203A
:1047A00004F81E09E67766770020C6E7FFE70220D7
:1047B000C3E70000020010000000FFFFF0B587B063
:1047C000044614216846FCF718FB1A492068884201
:1047D0002DD11948016841F004010160016801F020
:1047E00004010591016841F0010101600068122493
:1047F00000F0010005904FF4007001250326042706
:104800008DE8F10069460D48FFF774FC28028DE839
:10481000F10069460A48FFF76DFC0748103001684F
:1048200041F400010160006800F40000059007B049
:10483000F0BD0000005C004030380240000802403B
:10484000000002400248816802781144816070478C
:10485000F00200200B4810B5016841F400710160BE
:10486000016841F480610160016841F48071016078
:10487000032000F08DF8002000F006F800F03EF86C
:10488000002010BD003C024010B5014688B0002257
:104890002D2000F05DF82D2000F04CF81348002486
:1048A000016841F480710160006805A900F480701E
:1048B0000690684600F052FE00F076FE0C4940007B
:1048C000B0FBF1F10C480B4A491E026040F2E7329E
:1048D000C0E90324C0E9011401F0B2FA10B10120CB
:1048E00008B010BD044801F03FFBF9E74038024032
:1048F00040420F0000200040A01000200C4882B071
:10490000016841F480410160006800F4804000903B
:104910000748001F016841F08051016000680022D3
:1049200000F0805000900F21901E02B000F010B8EF
:1049300044380240002809DB00F01F0201219140A9
:104940004009800000F1E020C0F80011704700002D
:10495000F0B40E4B1B680C46C3F30223C3F10705EA
:10496000042D00D90425191D072901D2002300E0D8
:10497000DB1E012606FA05F1491E214099409E40A2
:10498000761E16403143F0BC07F0F0B90CED00E0A4
:10499000064900F0070208684FF6FF03184040EA96
:1049A0000220034A10430860704700000CED00E04D
:1049B0000000FA0570470068416200207047F0B5BA
:1049C0000368586A39B19C6A4FF4827600EB14444C
:1049D00000204D1E0AE040EA024098620FE006EB1C
:1049E0008007DF59401C04EB1744C0B2A842F6D33D
:1049F00044EA02404FF4807202EB810158500020DB
:104A0000F0BDD0F8080506F08BB801EBC10200EB51
:104A10008202D0F80805D26C05F0E0BF01EBC102BC
:104A200000EB8202D0F80805D2F88C2206F031B8EB
:104A3000D0F8080506F076B80A0601F00F0101EB80
:104A4000C10100EB810101D53C3101E001F51F718D
:104A5000006806F0A7BF70B504460B0601F00F0012
:104A600000EBC00104EB81014FF001024FF00005A3
:104A700003D581F83D203C3103E081F87D5201F5FA
:104A80001F71087094F8BC04012808D084F8BC2475
:104A9000206806F041FC84F8BC54002070BD022060
:104AA00070BD70B5044601F00F006268904201D9F4
:104AB000012070BD0B0601F00F0101EBC10104EBF9
:104AC00081014FF001024FF0000503D581F83D2030
:104AD0003C3103E081F87D5201F51F718D70087043
:104AE00094F8BC04012808D084F8BC24206806F09F
:104AF0000FFE84F8BC54002070BD022070BD01F090
:104B00000F0101EBC10100EB8100D0F89C0270475E
:104B10002DE9F04104460F0601F00F0000EBC00143
:104B200004EB81014FF001064FF0000503D581F839
:104B30003D603C3103E081F87D5201F51F71087042
:104B4000CA600B714A7802B10881022B00D14D7105
:104B500094F8BC04012809D084F8BC64206806F0ED
:104B600033FB284684F8BC54BDE8F0810220FBE703
:104B700070B50C4601F00F0505EBC50100EB810196
:104B8000C1F89432C1F88C220023C1F89C3281F81C
:104B90007D3281F87C52036901F51F71012B00D130
:104BA0004A612207027C006803D006F009FE00205B
:104BB00070BD06F0F3FCFAE770B504460D4601F04F
:104BC0000F006168884201D9012070BD29064FF0AD
:104BD00000064FF0010207D500EBC00104EB810194
:104BE00081F83D203C3107E005EBC50104EB810174
:104BF00081F87D6201F51F718A70087094F8BC0419
:104C0000012807D084F8BC24206806F0ADFD2807F1
:104C100002D007E0022070BD217C04F2C44220686B
:104C200006F04AFD84F8BC64002070BD70B50C46E7
:104C300001F00F0505EBC50100EB81014B65CA646E
:104C40000023CB65012381F83D3001F83C5F036907
:104C5000012B00D14A612207027C006803D006F0D4
:104C6000AFFD002070BD06F099FCFAE72DE9FC5F6E
:104C700005680446284606F036FF00287DD12068E6
:104C800006F05DFF002878D0D5F80808C0F30D20A5
:104C9000C4F8FC04206806F052FF800704D52068A1
:104CA000416901F002014161206806F048FFC10638
:104CB00004F2C440009034D52068816921F01001CD
:104CC00081612F6A07F00F0000EBC00004EB800643
:104CD000C7F3434006F51F76022802D0062811D0FC
:104CE0001AE047F6F070074216D0C7F30A121746CB
:104CF0002846316906F027FF306938443061306A50
:104D0000384408E008222846009906F01CFF306A63
:104D1000C7F30A11084430622068816941F010012C
:104D20008161206806F00BFF00034FF0080B4FF085
:104D3000000A4FF001097CD50026206806F0DEFE4F
:104D4000074674E0F80770D0F1B2206806F0EFFE75
:104D50008046C00707D005EB4611C1F8089B3146D5
:104D6000204602F0E9FB5FEA087024D505EB461106
:104D7000C1F808BB2068016C00E025E200EB46109A
:104D80000191D0F8082BFC4B994205D9110403D5A9
:104D90004FF40041C0F8081B204600F005FBF6491F
:104DA0000198884207D92069012804D1206801218F
:104DB000009A06F081FC5FEAC86004D505EB461155
:104DC0001020C1F8080B5FEA88701DD568690006DD
:104DD00005D5D5F8040840F48061C5F8041806EB41
:104DE000C60004EB800090F87F1200F51F700129C7
:104DF00005D180F803A0F1B2204600F0EBF905EBF5
:104E000046110220C1F8080B5FEA886004D505EB63
:104E100046102021C0F8081B5FEA884005D505EB45
:104E200046104FF40051C0F8081B7F08761C002F75
:104E300088D1206806F083FE40036FD5206806F015
:104E400056FE0746002667E0F80763D0F1B22068F7
:104E500006F05BFE8046C00723D006F00F0209FA79
:104E600002F0D5F834288243C5F8342805EB461003
:104E7000C0F80899206901280FD106EBC60004EBA1
:104E80008000D0E912211144C16436B9606D20B9A7
:104E900020680121009A06F00FFCF1B22046FFF7CE
:104EA000B4FD5FEA087003D505EB4611C1F808B9F7
:104EB0005FEAC86004D505EB46111020C1F8080967
:104EC0005FEA486004D505EB46104021C0F8081998
:104ED0005FEA887017D53146284606F0D7FD06EB05
:104EE000C60004EB800090F83F103C30012905D14A
:104EF00080F803A0F1B2204600F068F905EB4611F6
:104F00000220C1F808095FEA086003D5314620464F
:104F100002F078FB7F08761C002F95D1206806F000
:104F20000EFE002811DAD5F8040820F00101C5F8BA
:104F3000041894F8F40401282BD0204600F018FA45
:104F40002068416901F000414161206806F0F7FDE9
:104F500000050BD5D5F80808C00702D0204600F0A0
:104F60004BFA2068416901F400614161206806F054
:104F7000E6FDC00466D5D5F8040820F00100C5F8A8
:104F800004081021206806F081FD00214FF67F32D1
:104F90001FE084F8F4A400212046FFF70BFDCFE7C3
:104FA00005EB4110C0F80829D0F8003923F40013AC
:104FB000C0F80039C0F8082BD0F8003B23F40013E8
:104FC000C0F8003BD0F8003B43F00063C0F8003B62
:104FD000491C60688842E3D8D5F81C0840F00111EC
:104FE000C5F81C18206B002828460DD0D0F884087E
:104FF00040F00B01C5F88418D5F8440840F00B01C7
:105000002846C5F844180DE0D0F8140842F22B01E8
:105010000843C5F81408D5F8100840F00B012846DD
:10502000C5F81018D0F8000820F4FE61C5F8001883
:10503000217C2068009A06F03FFB2068416901F45A
:1050400080514161206806F07AFD800415D5206802
:1050500006F0FAF8206806F039FDE06000F09EFAEC
:105060000146227B206806F0CDFD204600F06AF95B
:105070002068416901F400514161206806F05FFD3C
:10508000000707D5204600F077F92068416901F054
:1050900008014161206806F052FD000616D5A86996
:1050A00020F08000A86101260DE000BF06EBC600DD
:1050B00004EB800090F87F02012803D1F1B2204672
:1050C000FFF7BAFC761C6068B042EFD8206806F0A3
:1050D00036FDC00221D501264F4616E005EB4610ED
:1050E000D0F8001906EBC60004EB800090F84020D1
:1050F000012A09D1002907DA80F83F70F0B240F0A8
:1051000080012046FFF798FC761C6068B042E5D825
:105110002068416901F480114161206806F00FFDAB
:10512000800234D501204B4629E000BF05EB401139
:10513000D1F8001B00EBC00204EB820696F8802237
:10514000012A1BD1002919DA94F8FC2401F48031DA
:1051500002F00102914211D186F87F32A96941F033
:105160008002AA616969090608D4D5F8040840F4E8
:105170000070C5F8040805E00A30544F401C61680F
:105180008142D3D82068416901F40011416120684F
:1051900006F0D5FC400007D52046FFF732FC20681A
:1051A000416901F080414161206806F0C8FC400778
:1051B0000AD520684568680702D52046FFF738FC05
:1051C0002068416829434160BDE8FC9FD0F808058C
:1051D00005F0FCBCD0F8080505F00CBD2DE9F04148
:1051E0008AB0040005D094F8BD042668002520B1DB
:1051F00008E001200AB0BDE8F08184F8BC542046E4
:1052000000F05EF8032084F8BD04F06BC00500D404
:105210002561206806F0BCF904F1100128228846B7
:105220006846FBF7D1FD94E80F0006F01BF8022654
:10523000C8BB0021206806F0A5FC002001270EE075
:1052400000EBC00104EB810181F83D7001F83C0FD7
:1052500008810D71CD600D61401CC0B28D61616827
:105260008142EDD8002011E000EBC00104EB810188
:1052700081F87D5281F87C0281F88052C1F8885211
:10528000C1F88C52401CC0B2C1F89452616881428E
:10529000EAD8282241466846FBF796FD94E80F00BD
:1052A00006F0BCF810B184F8BD64A2E784F8385069
:1052B00084F8BD74206806F0A3F800209AE7000087
:1052C00010B586B0044614216846FBF796FD2068A9
:1052D000B0F1A04F2FD119480021026842F001021D
:1052E0000260006800F0010005904FF4C05000908B
:1052F0000220CDE90101032003900A2004906946B1
:105300000F48FEF7F7FE0D48001D016841F08001CF
:1053100001600A481430016841F48041016000686E
:10532000002200F48040059005214320FFF710FB88
:105330004320FFF7FFFA06B010BD000030380240EE
:105340000000024070B50446C068012570B1022813
:1053500001D0FDF7ABFC2946D4F8080505F0B8FCF0
:10536000D4F80805BDE8704005F06DBC0025F2E7F3
:10537000D0F8080505F095BCD0F8080505F09BBCF1
:1053800010B5044690F8BC0401280BD0012084F825
:10539000BC0484F83810206806F022FC002084F851
:1053A000BC0410BD022010BDD0F8082500F2C44195
:1053B000104605F099BC10B50446006894F8BC147A
:1053C000012906D0012184F8BC14A16A012902D068
:1053D00008E0022010BDA169012903D0816B41F4CE
:1053E00080318163206806F02CFB206805F0FAFF0D
:1053F000002084F8BC0410BD10B50446D0F80805A0
:1054000005F0B4FC2068D0F8001E41F00101C0F89E
:10541000001E206A002804D00248016841F00601FD
:10542000016010BD10ED00E02DE9F0470E460500CB
:1054300065D0DFF81481D8F80000F7B200F007005B
:10544000B04207D288F80070D8F8000000F00700DA
:10545000B04254D128683D4C810712D5400703D58E
:10546000206840F4E05020602878000703D52068C9
:1054700040F4604020602068A96820F0F0000843F4
:1054800020602878C0072DD0304968680839012885
:1054900012D0022813D0032811D0096889070029E7
:1054A0002DDA216821F0030101432160FEF728FF76
:1054B000814641F2883A0EE009688903EFE70968FE
:1054C0008901ECE7FEF71CFFA0EB0901514502D969
:1054D0000320BDE8F0872068696800F00C00B0EB9D
:1054E000810FEFD1D8F80010404601F00701B1421A
:1054F00007D90770006800F00700B04201D0012012
:10550000E7E72878400705D52068E96820F4E050EF
:10551000084320602878000706D52068296920F410
:10552000604040EAC100206000F05EF82168084A4F
:10553000C1F30311515CC840064908600648006881
:10554000FFF7A2F90020C4E7003C024008380240FF
:10555000C40C0108FC020020F40200200F220260AB
:105560000C4A136803F003034360136803F0F0036D
:105570008360136803F4E053C36012684FF4E05390
:1055800003EAD20202610448006800F007000860E4
:105590007047000008380240003C024001480068A3
:1055A00070470000FC0200200448054900680968B3
:1055B000044AC1F38221515CC8407047FC020020BC
:1055C00008380240D40C01080448054900680968FD
:1055D000044AC1F34231515CC8407047FC020020CC
:1055E00008380240D40C0108154810B5006810F0C6
:1055F0000C02144813D01449042A0FD0082A0ED1E3
:105600000F4C241F2268236802F03F025B0207D57B
:105610002068C0F38810A0FB010106E0084610BD19
:105620002168C1F38811A1FB00010023FBF76AFB8D
:105630002168C1F30141491C4900B0FBF1F010BDE4
:10564000083802400024F400001BB7002DE9F84F91
:1056500004006ED02078DFF84C93C007A9F1040550
:105660004AD009F104000168C1F38101012908D081
:105670000068C0F3810002280AD1D9F80000400276
:1056800006D52868800337D560680028E1D033E06C
:105690006068B0F5803F10D0B0F5A02F286810D01A
:1056A00020F480302860286820F48020286060681A
:1056B000A8B1FEF725FE06460DE0286840F48030CC
:1056C000F4E740F480202860F7E700BFFEF718FEFB
:1056D000801B642873D828688003F7D50CE0FEF798
:1056E0000FFE064605E000BFFEF70AFE801B642899
:1056F000F0D828688003F7D42078DFF8AC828007E0
:105700004FF0000A3ED5A748001D016811F00C0FAC
:1057100008D00068C0F3810002280BD1D9F800003E
:10572000400207D42868800716D5E068012800D118
:1057300012E033E1E068B8B10120C8F80000FEF7DC
:10574000DFFD064605E000BFFEF7DAFD801B0228FC
:10575000C0D828688007F7D52868216920F0F800AC
:1057600040EAC10028600DE0C8F800A0FEF7C8FDBF
:10577000064604E0FEF7C4FD801B02281FD82868F7
:105780008007F7D42078000722D5864F87486169C3
:10579000703771B101210160FEF7B2FD064604E0E9
:1057A000FEF7AEFD801B022809D838688007F7D5C0
:1057B0000EE0C0F800A0FEF7A3FD064605E082E07B
:1057C000FEF79EFD801B02287DD838688007F7D43D
:1057D0002078400768D5DFF8CCB100270BF13C0BEF
:1057E000DBF80000C0000BD4DBF8001041F0805162
:1057F000CBF80010DBF80000012700F0805000908B
:105800006B4E3068C00510D4306840F48070306052
:10581000FEF776FD009005E0FEF772FD0099401A54
:10582000022850D83068C005F6D55E4EA0686C36A8
:1058300001280FD00528306810D020F0010030601A
:10584000306820F004003060A068B8B1FEF758FD61
:1058500000900FE0306840F00100F4E740F00400F1
:105860003060F7E7FEF74CFD0099411A41F28830AD
:10587000814266D830688007F4D50EE0FEF740FD1F
:10588000009007E0FEF73CFD0099411A41F2883094
:10589000814256D830688007F4D42FB1DBF800106D
:1058A00021F08051CBF80010A069C8B33D49091D13
:1058B0000968C1F3810102294AD00228504607D065
:1058C000C8F8600000E03CE0FEF71AFD04463BE04B
:1058D0004746C8F86000FEF713FD064605E000BF26
:1058E000FEF70EFD801B02282BD828688001F7D414
:1058F000D4E907010843A16A2E4A490802EB014195
:10590000626A41EA8211084394F82C1040EA01616E
:10591000C9F8001001203866FEF7F2FC044606E0E4
:105920003EE000BFFEF7ECFC001B022809D8286807
:105930008001F7D534E000BFFEF7E2FC001B02282F
:1059400002D90320BDE8F88F28688001F4D427E04D
:105950000128F7D0D9F80000E26900F480019142F3
:105960001CD1226A00F03F01914217D147F6C07165
:10597000626A0140B1EB821F10D1A26A4FF0FF337F
:1059800000F4403103EB5202B1EB024F06D194F820
:105990002C1000F07060B0EB016F01D00120D1E756
:1059A0000020CFE70438024000004742800E474203
:1059B000007000400000FFFF70B5040009D0606A6D
:1059C000002540B125616561A56294F8510040B1A0
:1059D0000CE0012070BD6068B0F5827FF4D0E56115
:1059E000F2E784F85050204600F044F8022084F892
:1059F00051002068016821F040010160A0882189E0
:105A000000F4827001F404410843A18901F40061AB
:105A10000843217C01F002010843217D01F00101CE
:105A20000843218B01F400710843217F01F0380104
:105A3000084394F8201001F080010843218D01F4FF
:105A40000051084321680860A069042101EA104060
:105A500094F8241001F01001084321684860206880
:105A6000C16921F40061C1616565012084F85100BC
:105A7000002070BD2DE9F04186B00646142168462D
:105A8000FBF7BBF935493068884264D134480024BB
:105A9000016841F480510160006800F48050059075
:105AA0002F481438016841F002010160016801F0DB
:105AB00002010591016841F00101016000680225C1
:105AC00000F0010005901820CDE9000502AA032787
:105AD0004FF0050882E8900169462248FEF70AFB6C
