:020000040800F2
:10000000D07000205D020008353100082D2E000858
:1000100001310008810B00080D43000800000000BA
:100020000000000000000000000000009D0100082A
:10003000A111000800000000F9010008193D0008A6
:1000400077020008770200087702000877020008AC
:10005000770200087702000877020008770200089C
:10006000770200087702000877020008770200088C
:10007000A91000087702000877020008770200083C
:100080007702000877020008770200084D0C00088C
:10009000210C0008770200087702000877020008A8
:1000A000770200087702000877020008770200084C
:1000B000770200087702000877020008770200083C
:1000C000770200087702000877020008770200082C
:1000D000770200087702000877020008770200081C
:1000E000770200087702000877020008770200080C
:1000F00077020008F53D0008770200087702000843
:1001000077020008770200087702000877020008EB
:1001100077020008770200087702000877020008DB
:1001200077020008CD100008D910000877020008F7
:10013000770200087702000877020008F90C00082F
:1001400077020008CD0C000877020008770200084B
:1001500077020008E5100008F110000801430008CC
:10016000770200087702000877020008770200088B
:1001700077020008770200087702000800000000FC
:100180007702000877020008DFF80CD000F094FC3A
:1001900000480047715B0008D07000202C4B1968A4
:1001A0000868B0E8F04F80F30988BFF36F8F4FF015
:1001B000000080F3118870470000000008480068C4
:1001C000006880F308884FF0000080F3148862B65E
:1001D00061B6BFF34F8FBFF36F8F00DF00BF00BF6B
:1001E00008ED00E0DFF80C00016841F470010160E7
:1001F000704700BF88ED00E0EFF30980BFF36F8F19
:10020000134B1A681EF0100F08BF20ED108A20E96A
:10021000F04F106009B44FF0500080F31188BFF325
:100220004F8FBFF36F8F06F033FC4FF0000080F369
:10023000118809BC19680868B0E8F04F1EF0100F6B
:1002400008BFB0EC108A80F30988BFF36F8F704746
:1002500078000020EFF305807047000006488047D3
:1002600006480047FEE7FEE7FEE7FEE7FEE7FEE79B
:10027000FEE7FEE7FEE7FEE7D93D0008890100083A
:100280009FED1A1AF5EE000A40EE010ABDEEE00AF3
:10029000F5EEC00A10EE100AF1EE10FA38BF401E5B
:1002A00000EE100A1349F7EE001AB8EEC00A30EE5D
:1002B000C00ADFED0F0A20EE200AFCEEC00A10EEA5
:1002C000900AC0F3080000EE900A01EB8000F8EEFF
:1002D000600A90ED011A70EE600A90ED000A71EE6E
:1002E000E01A21EE800A00EE810A704783F9223E6F
:1002F000000000447C750008DFED190AB5EEC00A65
:1003000060EE200ABDEEE01A11EE100AF1EE10FACE
:1003100038BF401E00EE100A1349F7EE001AB8EE7F
:10032000C00A30EEC00ADFED0F0A60EE200ABCEE14
:10033000E00A10EE100AC0F3080000EE100A01EB0C
:100340008000B8EE400A90ED011A70EEC00A90ED00
:10035000000A71EEE01A21EE800A00EE810A704771
:1003600083F9223E000000447C7500082DE9F05F0F
:100370000546002092469B46884606468146402414
:100380001BE0284641464746224600F008FA5346FD
:100390005A46C01A914110D311461846224600F021
:1003A000EFF92D1A67EB01084F4622460120002184
:1003B00000F0E6F917EB00094E41201EA4F10104FC
:1003C000DFDC484631462A464346BDE8F09F40EA16
:1003D00001039B0703D009E008C9121F08C0042AC3
:1003E000FAD203E011F8013B00F8013B521EF9D2AA
:1003F0007047D2B201E000F8012B491EFBD27047D2
:100400000022F6E710B513460A4604461946FFF7E0
:10041000F0FF204610BD2DE9FE4F804681EA030023
:10042000C00F0C46009021F0004123F00045B8EBCE
:100430000200A94105D24046214690461C460B4683
:10044000024623F00040104347D0270DC7F30A00AF
:10045000C3F30A510290401A019040286BDAC3F3AB
:10046000130040F4801B0098924620B10023D2EB89
:10047000030A63EB0B0B01985946C0F1400250464A
:1004800000F07EF906460D4650465946019A00F0A6
:1004900096F910EB08006141002487EA115284EAC2
:1004A000E7731A4340D0009A62B3019A012A4FEAD7
:1004B000075215DC001B61EB02014FF0004202EA1B
:1004C0000752CDE90042001C41F5801132462B460F
:1004D00000F0CDF903B0BDE8F08F40462146F9E7C2
:1004E000001B61EB0201001C41F5801300185B4109
:1004F0002018A2F5001747EB030140EAD570B619A2
:100500006D4111E06D084FEA360645EAC0754FEAC5
:100510000752001B61EB0201001C41F580114908E4
:100520004FEA30000019514132462B4603B0BDE876
:10053000F04F00F08DB90098012240000023D0EB6D
:10054000020263EBE073009821464FEAE074B8EBD7
:10055000000061EB0401E9E783F000435BE781F011
:10056000004158E72DE9FE4F81EA030404F00044FE
:1005700021F0004100944FF0000B23F0004350EABB
:1005800001045ED052EA03045BD0C3F30A54C1F302
:100590000A552C44A4F2F3340194A0FB0254C1F395
:1005A000130141F48011C3F3130343F4801301FBDF
:1005B000024400FB034E840A970A44EA815447EA46
:1005C0008357A4FB076802958D0A05FB07854FEA50
:1005D000932C04FB0C542705029D4FEA065847EA6A
:1005E0001637B5EB08056EEB070C870E920E47EA3F
:1005F000811742EA8312A7FB0201B6EB0B0164EB01
:1006000000042B0D43EA0C335E1844EB1C50DA4611
:100610005146E7FB0201C5F313044FEA0B3343EAEB
:1006200014534FEA0432019C43EA0603A4F10C047C
:100630000294009CCDE900B400F019F903B0BDE8C4
:10064000F08F00200146F9E70EB5C10F80EAE07097
:100650000844CA07002140F233438DE80E000A46E1
:100660000B4600F004F903B000BD0EB540F2334173
:1006700002910021CDE900110A460B4600F0F7F87F
:1006800003B000BD70B5C1F30A5201F0004500246B
:10069000C1F3130140F2FF3341F480119A4201DAB1
:1006A000002070BD40F233439A42A2F2334203DC91
:1006B000524200F074F800E090402C43F1D04042E8
:1006C00070BD00F0004230F000400AD0C10D01F5CD
:1006D0006071C0F3160042EA0151C208400711439D
:1006E000704700200146704730B5041E71F10004C8
:1006F00004DB4FF00044404264EB0101141E73F12F
:10070000000405DB1C464FF00043524263EB040338
:100710008B4208BF824230BD30B5041E71F1000427
:1007200004DB4FF00044404264EB0101141E73F1FE
:10073000000405DB1C464FF00043524263EB040308
:10074000994208BF904230BD01F0004330B421F01F
:10075000004150EA010206D00A0DA2F56072C1F311
:100760001301002A02DC30BC00207047440F44EA29
:10077000C104C100E01830BC00EBC25000F031B839
:10078000202A04DB203A00FA02F100207047914051
:10079000C2F1200320FA03F3194390407047202A46
:1007A00004DB203A21FA02F00021704721FA02F31B
:1007B000D040C2F120029140084319467047202AD8
:1007C00006DBCB17203A41FA02F043EAE07306E079
:1007D00041FA02F3D040C2F1200291400843194689
:1007E00070470029A8BF7047401C490008BF20F08F
:1007F0000100704710B4B0FA80FC00FA0CF050EA27
:10080000010404BF10BC704749B1CCF1200421FAA7
:1008100004F411FA0CF118BF012121430843A3EBA2
:100820000C01CB1D4FEA00614FEA102042BF0020AF
:1008300010BC704700EBC35010440029A4BF10BC8B
:100840007047401C490008BF20F0010010BC7047F1
:1008500010B5141E73F1000408DA401C41F10001C8
:1008600092185B411A4301D120F0010010BD2DE91F
:10087000F04D92469B4611B1B1FA81F202E0B0FA16
:1008800080F220329046FFF77BFF04460F4640EA95
:100890000A0041EA0B0153465A46084313D0114659
:1008A00053EA010019D0C8F140025046FFF777FF24
:1008B00005460E46504659464246FFF761FF08433B
:1008C00005D0012004E020463946BDE8F08D002027
:1008D000054346EAE0762C4337430A986305E40A69
:1008E000A0EB08000022FD0A44EA47540A3002D572
:1008F00000200146E9E7010510196941DDE90845D5
:1009000000196941BDE8F04DA2E72DE9F04D81EAFB
:10091000030404F0004B21F0004514464FF0000A98
:1009200023F0004150EA050220D054EA01021DD014
:10093000C5F30A570246C5F31303C1F31300C1F30D
:100940000A5640F4801543F48013A7EB0608101BE9
:10095000D64608F2FD3873EB050002D308F1010812
:1009600001E092185B41B8F1000F03DA0020014664
:10097000BDE8F08D00204FF48011064684460EE05D
:10098000171B73EB050705D3121B63EB0503064327
:100990004CEA010C49084FEA300092185B4150EADA
:1009A0000107EDD152EA030012D082EA040083EA83
:1009B0000501084305D0101BAB4106D201220023DC
:1009C00006E000224FF0004302E06FF001025310F6
:1009D0001AEB06004CEB085110EB0A0041EB0B013F
:1009E000BDE8F04DFFF734BF70B521F0004303437D
:1009F0000CD0C1F30A550024D5EB040564EB0403C5
:100A0000D617AD1AB34102DB0020014670BD201895
:100A100041EB025170BD2DE9F04D00231A461B1A1F
:100A20008A4103DB00200146BDE8F08DC1F30A5284
:100A3000C1F3130141F480154FF0000BD10702D12F
:100A400000186D41521E0027044640F2FF1138463F
:100A500001EB620A3E468046024600204FF48011B8
:100A6000FFF79DFEC2197141BB1846EB0100B4EBC4
:100A7000030C75EB000C04D3E41A65EB0005174674
:100A80000E46241908F101006D4180463428E3DD4B
:100A9000F91946EB0600091BA84103D24FF0FF32BB
:100AA000134601E0002213461BEB070046EB0A51F8
:100AB000BDE8F04DFFF7CCBE064C074D06E0E06800
:100AC00040F0010394E8070098471034AC42F6D395
:100AD000FFF75EFBDC7E0008FC7E00082DED028B3C
:100AE00088B005F019F8002004F0F2FF05F03CF89A
:100AF000214D9FED228A04462021D4F83003B0F91D
:100B0000000000EE100AB8EEC00A8DED020AD4F81B
:100B10003003B0F9020000EE100AB8EEC00A8DED05
:100B2000030AD4F83003B0F9040000EE100A684656
:100B3000B8EEC00A8DED040A94EDD10A8DED050AD8
:100B400094EDD20A8DED060A95ED000AB8EE400A42
:100B50008DED070A94ED080A20EE080A8DED000AD3
:100B600094ED070A20EE080A8DED010A05F0C2FC9B
:100B7000012005F029F8BFE76400002000007A4456
:100B8000FEE700000068B0F5017F08D011DCA0F599
:100B90000072013A03D0012A01D0022A15D10F4A6E
:100BA000401EC0B210700E4A00EB800002EB400005
:100BB0000EE0A0F50070063808D00A280AD00B28ED
:100BC00003D10888054922314880704704480A3813
:100BD00004F0A6BF01480C3004F0B4BF240000208C
:100BE000F20A002000B58BB000200121CDE90601FA
:100BF00003900891049000900E21019002900991B9
:100C000005906946054800F045FB0221034800F0C5
:100C1000CAFA024800F058FE0BB000BDA007002041
:100C200010B5074B074A0021074800F0BAFB0449FA
:100C30000448FFF7A7FFBDE81040034800F025BCBB
:100C400014000020880B0020A0070020014800F0BD
:100C50001CBC0000A00700200068A0F50072053A47
:100C600005D0012A03D0022A01D0032A0AD1064A5C
:100C7000401FC0B25070054A00EB800002EB4000FC
:100C800004F04EBF70470000240000201A0B002023
:100C900000B58BB000200121CDE906010090019044
:100CA0000290CDE903010E20CDE9081005906946B8
:100CB000054800F0EFFA1021034800F074FA0248EA
:100CC00000F002FE0BB000BDC807002010B5074BB6
:100CD000074A0121074800F064FB04490448FFF774
:100CE000BBFFBDE81040034800F0CFBB140000205C
:100CF000880B0020C8070020014800F0C6BB000098
:100D0000C807002030B40F4C4FF400752560002553
:100D1000A560E560082525610B4C050A257060700B
:100D2000080AA070E170100A20716271180AA0719F
:100D3000E371A4F11203224630BC0249034800F0DB
:100D400044BA0000700B00203E000020A0070020E5
:100D500030B40F4C40F2FF1525600025A560E5601A
:100D6000082525610B4C050A25706070080AA070E3
:100D7000E170100A20716271180AA071E371A4F188
:100D80000A03224630BC0249034800F01EBA0000A4
:100D9000700B002036000020C807002070B504004A
:100DA0002DED048B3BD004F0C9FE206004F0DCFE86
:100DB000606004F09BFE1B499FED1B8ADFED1B8AE0
:100DC0009FED1B9ADFED1B9A00250860284604F072
:100DD0007FFE014605EBC50000EB451004EB8000EB
:100DE000B0EE482A8160F0EE681AB2EE021AF0EE18
:100DF000490AB0EE690A0021643002F01DFA6D1C48
:100E0000EDB2042DE2D304F06DFEC4F8E00204F567
:100E1000387404F059FE606004F068FEA060BDEC18
:100E2000048B70BD50000020000000008FC2F53C14
:100E30000000C8440080BB452DE9F04106002DEDBF
:100E4000028B65D000259FED348B4FF47A7700BF7D
:100E5000D6F8E8024088B0FBF7F0FFF706FC53EC49
:100E6000182BFFF741FC22D2D6F8E402B0F90000BB
:100E7000192805EBC50000EB451006EB80046069FE
:100E800006DDFFF71EFC41EC100B9FED251B05E076
:100E9000FFF717FC41EC100B9FED231B51EC100BDF
:100EA00053EC112BFFF75EFBFFF74EFC606105EB87
:100EB000C50000EB451006EB800404F16400D4ED9E
:100EC000050A94ED040A02F037F9D6F8E8024088E2
:100ED000B0FBF7F0FFF7C9FBB0EE481AF0EE681A66
:100EE00053EC112BFFF700FC0ED21149D4F8A000EF
:100EF000884202DD9FED0F0A04E00F49884203D9C2
:100F00009FED0E0A84ED280A6D1CEDB2042D9FD3CF
:100F1000BDEC028BBDE8F0810000000000002B401A
:100F20009A9999999999E93F333333333333E33FAE
:100F30000000E1440000E1440000E1C40000E1C41D
:100F400070B504462DED028B90EDE80AFFF798F995
:100F500084EDCD0A94EDE80AFFF7CEF984EDCE0AD0
:100F600094EDE80AFFF7C8F9B1EE400A84EDCF0A24
:100F700094EDE80AFFF784F984EDD00AD4F8301331
:100F8000474DB1F90020B5F90800824202DD6A78C8
:100F9000104403E003DA6A78A0EB02002881B5F977
:100FA000083068784FF00002B3EB500F05DC464282
:100FB00006EBD676B3EB660F01DA2B7803B92A81FC
:100FC000B1F90230B5F90A108B4201DD014402E0AB
:100FD00002DAA1EB00016981B5F90A10B1EB500FFB
:100FE00005DC404200EBD070B1EB600F01DA2878ED
:100FF00000B96A8194EDE80AFFF77EF9B5F90A00B5
:1010000000EE900AF8EEE00A20EE208A94EDE80A5D
:10101000FFF736F9B5F9080000EE900AF8EEE00A9D
:1010200000EE808AB1EE480A84EDD10A94EDE80A18
:10103000FFF762F9B5F9080000EE900AF8EEE00A51
:1010400020EE208A94EDE80AFFF71AF9B5F90A00B4
:1010500000EE900AF8EEE00A00EEC08A84EDD28A33
:1010600094EDD10ABDEEC00A10EE100A00B203F0F2
:1010700089F99FED0C8A142801DA84EDD18A94ED68
:10108000D20ABDEEC00A10EE100A00B203F07AF9DF
:10109000142801DA84EDD28ABDEC028B70BD000009
:1010A000540000200000000010B5054800F09AFC34
:1010B00002F0DEF8BDE810400249034802F00EB924
:1010C0007C090020A40B0020BA0B0020014800F08E
:1010D00089BC0000DC090020014800F083BC00004E
:1010E000BC080020014800F07DBC00003C0A002044
:1010F000014800F077BC00001C090020016818239B
:10110000CAB2103AB2FBF3F2054B6FF30901032A9E
:101110009B5CC36500D9091D8165084670470000C6
:101120005C75000810B5014600208B698A6A4FF093
:10113000C07453B1B3F5005F15D072B1012A0CD061
:10114000022A0AD0032A09D104E01AB1012A06D0E2
:10115000022A03D1C96AC90100D5012010BDC96A9C
:10116000A142FAD010BD002AF7D0012AF2D0022AFB
:10117000F3D0032AF3D010BD30B50468256825F4F8
:1011800080252560046863608368402B036803D072
:1011900099600068C26030BD9A600068C16030BD6F
:1011A000704772B6FEE790F82020012A07D0022A85
:1011B00005D0416A41F480214162012070470068F6
:1011C00042690A43426100207047F0B590F8205010
:1011D0000468A468012D05D0022D03D0416A41F4B2
:1011E000802153E014F0406F01D1E5004BD5C4F3EA
:1011F0000164022C03D9416A41F4000146E0012553
:10120000A5401D608D684FF4C0739DB1CE68354315
:101210004E6845EAC605066803EB0417F5514FF41E
:10122000C275076805EB04150E697E51097D012919
:1012300005D009E00E88CD6845EA4655EBE7016820
:101240004E5946F480764E511179D2F805504FF43C
:10125000C67641EA0525016806EB04168D51117822
:10126000D2F801204FF4C47541EA0221026805EB6F
:1012700004155151006803EB0411425842F0010279
:1012800042500020F0BD416A41F40011416201204A
:10129000F0BD000010B590F82020012A07D0022AE6
:1012A00005D0416A41F480214162012010BD3B48D4
:1012B000D0F8002242F00102C0F80022D0F800224B
:1012C00022F47C52C0F80022D0F800224B6A42EA95
:1012D0000322C0F800220A7D02F01F0301229A4077
:1012E000D0F81C329343C0F81C32CB69B3B9D0F8A4
:1012F0000C329343C0F80C328C894B6864F31F4363
:101300004C6900EBC404C4F840320C890B6864F3E8
:101310001F434C6900EBC404C4F84432CB69012B71
:1013200016D1D0F80C321343C0F80C320C884B683D
:1013300064F31F434C6900EBC404C4F840320C89C9
:10134000CB6864F31F434C6900EBC404C4F8443217
:101350008B69002BD0F804320ED01343C0F804324E
:101360000B69002BD0F8143208D01343C0F81432A4
:10137000096A012904D008E09343EFE79343F5E7B6
:10138000D0F81C121143C0F81C12D0F8001221F042
:101390000101C0F80012002010BD000000640040F0
:1013A000704730B590F82040012C05D0022C03D0B6
:1013B000416A41F480215DE00468002955D0246928
:1013C000A40754D04FF4D874056804EB01142D59C8
:1013D00015F00405956005682D594ED0ED0855604F
:1013E00005682C5904F00204D4604FF4DA740568DF
:1013F00004EB01142D5905F00F05156105682D59F1
:10140000C5F30725956105682C59240C54614FF4E8
:10141000DC72046802EB0112A4581C700468A45822
:10142000240A5C700468A458240C9C700468A258B8
:10143000120EDA704FF4DE72046802EB0112A45847
:101440001C710468A458240A5C710468A458240C14
:101450009C710468A258120EDA71006881B10169AA
:1014600041F020010161002030BDE468A8E7416A35
:1014700041F400114162012030BD6D0D1560AFE7F0
:10148000C16841F02001C160EDE72DE9F05F05463C
:10149000006800244669D0F804908768D0F80CB042
:1014A000D0F810A0D0F81880F10748D0F90714D070
:1014B00001218160B80703D5284600F032FA0CE01C
:1014C000780702D54FF4006407E0380702D54FF4DF
:1014D000805402E0284600F023FAF80516D5296862
:1014E0004FF480708860B80503D5284600F01BFAD9
:1014F0000CE0780502D544F4005407E0380502D525
:1015000044F4804402E0284600F00CFAF80316D5B3
:1015100029684FF480308860B80303D5284600F06E
:1015200004FA0CE0780302D544F4004407E03803E1
:1015300002D544F4803402E0284600F0F5F9300783
:1015400007D55FEACB6004D52968102044F4007405
:10155000C86070074FF0080707D55FEA0B7004D525
:101560002868C760284600F0A9F9B00706D52868A2
:10157000C068800702D0284600F0A1F9700607D5A0
:101580005FEACA6004D52968102044F480640861C9
:10159000B00607D55FEA0A7004D5286807612846B7
:1015A00000F08EF9F00606D528680069800702D0A1
:1015B000284600F086F9B00308D55FEAC96005D572
:1015C000296810204860284600F07CF9F00307D510
:1015D0005FEA097004D528684760284600F0A6F93C
:1015E000300446D55FEA497040D5F00504D55FEA7E
:1015F000C87001D044F00104B00504D55FEA8870DA
:1016000001D544F00204700504D55FEA487001D5A5
:1016100044F00404300529D518F0700F26D008F0E6
:101620007000402815D006DC102809D020280AD0E8
:10163000302816D10AE050280ED0602811D10EE0D3
:1016400044F008040DE044F010040AE044F02004E3
:1016500007E044F0400404E044F0800401E044F476
:1016600080742868816921F07001816129680420F3
:101670004860002C05D0686A204368622846FFF75E
:101680008FFEBDE8F09F70B5040003D094F82000F1
:1016900010B104E0012070BD204600F081F8206800
:1016A000016841F00101016000F014FC05460526C7
:1016B00004E000F00FFC401B0A2811D820684068A5
:1016C000C007F6D02068016821F00201016000F037
:1016D00001FC05460BE000F0FDFB401B0A2806D983
:1016E000606A40F40030606284F82060D2E72068CD
:1016F00040688007EFD4207E0128206801683DD033
:1017000021F080010160607E01282068016838D0E6
:1017100021F040010160A07E01282068016833D0DB
:1017200021F020010160E07E0128206801682ED0B0
:1017300041F010010160207F01282068016829D054
:1017400021F008010160607F01282068016824D031
:1017500021F004010160D4E902010843D4E9041234
:10176000114308436168491E08432168C86100208D
:101770006062012084F82000002070BD41F08001EB
:10178000C0E741F04001C5E741F02001CAE721F080
:101790001001CFE741F00801D4E741F00401D9E797
:1017A000F0B587B0044614216846FEF729FE3E4B8B
:1017B0003E48DFF8F0E01968D4F800C03B4A032542
:1017C0000226092710300024491CF4452AD119604B
:1017D000012907D1016841F000710160006800F043
:1017E00000700590106840F0080010601068CDE9A6
:1017F000005600F00800CDE9047069462C48CDE998
:10180000024500F061FA00220521132000F0EEFBF2
:10181000132000F0DDFB00220521142000F0E6FB80
:1018200014203AE0DFF88CE0F44538D1D0F800C05D
:101830004CF0806CC0F800C0D0F800C001290CF05A
:10184000806CCDF814C0196007D1016841F00071B7
:101850000160006800F000700590106840F0020020
:101860001060106802AB00F0020005906020CDE926
:10187000000683E8B00069460F4800F025FA002210
:1018800005213F2000F0B2FB3F2000F0A1FB002229
:101890000521412000F0AAFB412000F099FB07B090
:1018A000F0BD00000064004010000020303802400D
:1018B000000C02400068004000040240704770477E
:1018C000704770477047000070B5044690F82000DC
:1018D000012804D0606A40F40020606218E0022011
:1018E00084F820002068016821F00101016000F007
:1018F000F1FA05460EE000BF00F0ECFA401B0A28A2
:1019000008D9606A40F400306062052084F8200045
:10191000012070BD20684068C007EDD1606270BDD5
:1019200070477047704770477047704770472DE9A0
:10193000F0410446876D00F0CDFA064694F8350074
:101940000025022806D08020606584F834500120EC
:10195000BDE8F0812068016821F01601016020686F
:10196000416921F080014161206C08B9A06C20B16F
:101970002068016821F0080101602068016821F0F9
:10198000010101600CE000F0A5FA801B052807D9D1
:1019900020206065032084F8350084F83450D7E7B0
:1019A00020680068C007EED194F85C103F208840A2
:1019B000B860012084F8350084F834500020C7E76F
:1019C00090F83510022903D080214165012070472D
:1019D000052180F835100068016821F001010160DF
:1019E000002070472DE9F84304464FF00009CDF878
:1019F000009063484FF41651A56D0068B0FBF1F7F5
:101A00002E6894F85C10082000FA01F131420FD0E2
:101A100021680A6852070BD50A6822F004020A609E
:101A200094F85C108840A860606D40F0010060652B
:101A300094F85C104FF0010808FA01F0304208D029
:101A400021684969090604D5A860606D40F002006C
:101A5000606594F85C1004208840304208D021680A
:101A60000968890704D5A860606D40F004006065CE
:101A700094F85C1010208840304218D02168096822
:101A8000090714D5A86020680168490304D50068D7
:101A9000000308D5A16C07E00168C90503D40168FB
:101AA00021F008010160216C09B12046884794F8B3
:101AB0005C1020208840304231D021680968C90676
:101AC0002DD5A86094F8350005282068016806D057
:101AD000490347D5006800031DD4616C1CE021F068
:101AE000160101602068416921F080014161206C8C
:101AF00008B9A06C20B12068016821F008010160DC
:101B000094F85C103F208840A86084F8358084F801
:101B10003490216D1FE0E16B09B120468847606D6C
:101B200000282BD0606DC00714D0052084F8350044
:101B30002068016821F0010101600098401C0090BC
:101B4000B84203D820680068C007F6D184F8358011
:101B500084F83490E16C002910D001B02046BDE833
:101B6000F04308470168C905D5D4016821F0100188
:101B7000016084F8358084F83490CCE7BDE8F883C0
:101B8000740000202DE9F041044600F0A3F9064658
:101B90005CB1022084F83500002584F834502068B8
:101BA000016821F0010101600DE00120BDE8F08134
:101BB00000F090F9801B052805D9202060650320DE
:101BC00084F83500F2E720680068C007F0D1226889
:101BD000116820480140D4E901031843D4E90336D1
:101BE0003343184363691843A3691843E3691843EF
:101BF000236A18430843616A042903D1D4E90B130B
:101C000019430843106020684069666A20F00701A4
:101C100030460E43012704280CD1A06A0643E06A2F
:101C200040B12046FFF77EFA20B14020606584F87D
:101C30003570BAE7206846612046FFF75FFA94F8EE
:101C40005C203F2191408160656584F835700020FB
:101C5000ACE700003F8010F02DE9F0410446866DAE
:101C600090F83400002501280DD0012084F83400BC
:101C700094F835700020012F07D084F83400022535
:101C80002846BDE8F0810220FBE7022784F8357082
:101C900060652046FFF770FA94F85C103F2088409A
:101CA000B0602068016841F016010160206C20B12D
:101CB0002068016841F0080101602068016841F076
:101CC00001010160DCE700002DE9F84FDFF8BCA15D
:101CD0000022012503264FF00F090AF1040BAAF197
:101CE000040E00BF0B6805FA02F42340A34270D132
:101CF0000F7907F00307012F01D0022F16D1876853
:101D00004FEA420806FA08FC27EA0C07D1F80CC093
:101D10000CFA08FC4CEA070CC0F808C04768A74357
:101D20000C79C4F3001494403C4344600C79E443C0
:101D3000A4070AD0C4684FEA420C06FA0CF7BC4369
:101D40008F6807FA0CF72743C7600C7904F0030487
:101D5000022C12D1D40800EB840CDCF82040570789
:101D6000FF0E09FA07F824EA0804D1F8108008FAEF
:101D700007F848EA0408CCF8208004684FEA420CCF
:101D800006FA0CF7BC430F7907F0030707FA0CF7C4
:101D9000274307604C6814F4403F70D03C4C2768E0
:101DA00047F480472760246822F0030704F4804446
:101DB0000094384C07EB040CDCF8084897074FEA0E
:101DC000177809FA08F7BC43334FB84202D100270D
:101DD00024E054E0314FB84201D101271EE0304FDA
:101DE000B84201D1022719E02E4FB84201D1032792
:101DF00014E02D4FB84201D104270FE02B4FB84219
:101E000001D105270AE02A4FB84201D1062705E093
:101E1000284FB84201D1072700E0082707FA08F742
:101E20002743CCF80878DAF800405746D1F804C0C8
:101E30009C435FEACC2C00D51C433C60DBF800409F
:101E40005F46D1F804C09C435FEA8C2C00D51C434C
:101E50003C60DEF800407746D1F804C09C435FEA5E
:101E60008C3C00D51C433C60084F083F3C68D1F8CF
:101E700004C09C435FEACC3C00D51C433C60521C30
:101E8000102AFFF42FAFBDE8F88F0000083C014096
:101E9000443802400030014000000240000402408B
:101EA00000080240000C02400010024000140240F2
:101EB00000180240001C0240426921EA02030A4065
:101EC00043EA0241816170470AB1816170470904A8
:101ED000FBE70000014880687047000068000020B0
:101EE00002488168027811448160704768000020D0
:101EF0000B4810B5016841F400710160016841F4BC
:101F000080610160016841F480710160032000F08C
:101F10008DF8002000F006F800F03EF8002010BD1B
:101F2000003C024010B5014688B000222D2000F090
:101F30005DF82D2000F04CF813480024016841F4AE
:101F400080710160006805A900F480700690684601
:101F500000F018F900F036F90C494000B0FBF1F13F
:101F60000C480B4A491E026040F2E732C0E90324E4
:101F7000C0E9011400F030FB10B1012008B010BD21
:101F8000044800F057FBF9E74038024040420F0098
:101F9000002000409C0A00200C4882B0016841F4F7
:101FA00080410160006800F4804000900748001FF5
:101FB000016841F0805101600068002200F080500B
:101FC00000900F21901E02B000F010B8443802407B
:101FD000002809DB00F01F02012191404009800028
:101FE00000F1E020C0F8001170470000F0B40E4B83
:101FF0001B680C46C3F30223C3F10705042D00D967
:102000000425191D072901D2002300E0DB1E01264B
:1020100006FA05F1491E214099409E40761E164061
:102020003143F0BC02F09EB90CED00E0064900F02F
:10203000070208684FF6FF03184040EA0220034AEF
:1020400010430860704700000CED00E00000FA0546
:102050002DE9F0470E46050065D0DFF81481D8F869
:102060000000F7B200F00700B04207D288F8007015
:10207000D8F8000000F00700B04254D128683D4C69
:10208000810712D5400703D5206840F4E050206056
:102090002878000703D5206840F46040206020685D
:1020A000A96820F0F000084320602878C0072DD0F0
:1020B000304968680839012812D0022813D0032853
:1020C00011D00968890700292DDA216821F0030160
:1020D00001432160FFF7FEFE814641F2883A0EE09F
:1020E00009688903EFE709688901ECE7FFF7F2FE69
:1020F000A0EB0901514502D90320BDE8F087206813
:10210000696800F00C00B0EB810FEFD1D8F8001037
:10211000404601F00701B14207D90770006800F09E
:102120000700B04201D00120E7E72878400705D535
:102130002068E96820F4E050084320602878000710
:1021400006D52068296920F4604040EAC10020607B
:1021500000F058F82168084AC1F30311515CC840E7
:102160000649086006480068FFF7DCFE0020C4E767
:10217000003C0240083802406475000874000020EA
:102180006C0000200F2202600C4A136803F0030366
:102190004360136803F0F0038360136803F4E053B3
:1021A000C36012684FF4E05303EAD20202610448AC
:1021B000006800F00700086070470000083802401F
:1021C000003C02400448054900680968044AC1F31C
:1021D0008221515CC84070477400002008380240DA
:1021E000747500080448054900680968044AC1F389
:1021F0004231515CC84070477400002008380240EA
:1022000074750008154810B5006810F00C021448E9
:1022100013D01449042A0FD0082A0ED10F4C241FC2
:102220002268236802F03F025B0207D52068C0F3F2
:102230008810A0FB010106E0084610BD2168C1F32B
:102240008811A1FB00010023FEF790F82168C1F37B
:102250000141491C4900B0FBF1F010BD08380240B3
:102260000024F400001BB7002DE9F84F04006ED0E5
:102270002078DFF84C93C007A9F104054AD009F192
:1022800004000168C1F38101012908D00068C0F38E
:10229000810002280AD1D9F80000400206D528683A
:1022A000800337D560680028E1D033E06068B0F57E
:1022B000803F10D0B0F5A02F286810D020F48030D7
:1022C0002860286820F4802028606068A8B1FFF7A3
:1022D00001FE06460DE0286840F48030F4E740F443
:1022E00080202860F7E700BFFFF7F4FD801B64281B
:1022F00073D828688003F7D50CE0FFF7EBFD06469E
:1023000005E000BFFFF7E6FD801B6428F0D82868D1
:102310008003F7D42078DFF8AC8280074FF0000A02
:102320003ED5A748001D016811F00C0F08D00068C9
:10233000C0F3810002280BD1D9F80000400207D475
:102340002868800716D5E068012800D112E033E143
:10235000E068B8B10120C8F80000FFF7BBFD0646F1
:1023600005E000BFFFF7B6FD801B0228C0D8286833
:102370008007F7D52868216920F0F80040EAC100FD
:1023800028600DE0C8F800A0FFF7A4FD064604E0B1
:10239000FFF7A0FD801B02281FD828688007F7D40C
:1023A0002078000722D5864F87486169703771B160
:1023B00001210160FFF78EFD064604E0FFF78AFD6C
:1023C000801B022809D838688007F7D50EE0C0F8CE
:1023D00000A0FFF77FFD064605E082E0FFF77AFDEB
:1023E000801B02287DD838688007F7D42078400702
:1023F00068D5DFF8CCB100270BF13C0BDBF800000F
:10240000C0000BD4DBF8001041F08051CBF8001075
:10241000DBF80000012700F0805000906B4E306820
:10242000C00510D4306840F480703060FFF752FD72
:10243000009005E0FFF74EFD0099401A022850D8A1
:102440003068C005F6D55E4EA0686C3601280FD006
:102450000528306810D020F001003060306820F08E
:1024600004003060A068B8B1FFF734FD00900FE0C1
:10247000306840F00100F4E740F004003060F7E716
:10248000FFF728FD0099411A41F28830814266D851
:1024900030688007F4D50EE0FFF71CFD009007E0E0
:1024A000FFF718FD0099411A41F28830814256D851
:1024B00030688007F4D42FB1DBF8001021F0805190
:1024C000CBF80010A069C8B33D49091D0968C1F3E4
:1024D000810102294AD00228504607D0C8F860007E
:1024E00000E03CE0FFF7F6FC04463BE04746C8F856
:1024F0006000FFF7EFFC064605E000BFFFF7EAFCCF
:10250000801B02282BD828688001F7D4D4E9070162
:102510000843A16A2E4A490802EB0141626A41EA76
:102520008211084394F82C1040EA0161C9F80010A8
:1025300001203866FFF7CEFC044606E03EE000BF0F
:10254000FFF7C8FC001B022809D828688001F7D5CE
:1025500034E000BFFFF7BEFC001B022802D90320B5
:10256000BDE8F88F28688001F4D427E00128F7D06F
:10257000D9F80000E26900F4800191421CD1226A7E
:1025800000F03F01914217D147F6C071626A0140E5
:10259000B1EB821F10D1A26A4FF0FF3300F440313B
:1025A00003EB5202B1EB024F06D194F82C1000F06D
:1025B0007060B0EB016F01D00120D1E70020CFE7C0
:1025C0000438024000004742800E4742007000403D
:1025D0000000FFFF7047704710B5040003D094F867
:1025E0003D0010B107E0012010BD002084F83C0040
:1025F000204600F01EF8022084F83D00211D2068CE
:1026000001F0FEFB012084F8460084F83E0084F8C7
:102610003F0084F8400084F8410084F8420084F8C8
:10262000430084F8440084F8450084F83D0000200D
:1026300010BD704790F83D10012901D0012070476E
:10264000022180F83D100168CA6842F00102CA60A8
:1026500000681149884214D0B0F1804F11D00F4961
:1026600088420ED00E4988420BD00E49884208D0CD
:102670000D49884205D00D49884202D00C49884254
:1026800004D1816801F00701062903D0016841F0F7
:10269000010101600020704700000140000400407B
:1026A00000080040000C00400004014000400140D0
:1026B00000180040704770B50446006801694FF08B
:1026C0000005C943890715D4C168C943890711D4D6
:1026D000E91E01610120207720688069800720467B
:1026E00002D0FFF7E7FF04E000F098F8204600F082
:1026F00096F8257720680169C943490717D4C1684E
:10270000C943490713D46FF0040101610220207707
:102710002068806910F4407F204602D0FFF7CAFF8E
:1027200004E000F07BF8204600F079F82577206877
:102730000169C943090716D4C168C943090712D4FE
:102740006FF008010161042020772068C0698007CC
:10275000204602D0FFF7AEFF04E000F05FF820460D
:1027600000F05DF8257720680169C943C90617D4D0
:10277000C168C943C90613D46FF010010161082074
:1027800020772068C06910F4407F204602D0FFF710
:1027900091FF04E000F042F8204600F040F8257771
:1027A00020680169C943C90708D1C168C943C9077D
:1027B00004D1891E0161204600F032F820680169C9
:1027C000C943090609D4C168C943090605D46FF095
:1027D000800101612046FFF7FDFE20680169C943C1
:1027E000490609D4C168C943490605D46FF04001C0
:1027F0000161204600F01EF820680169C94389067E
:102800000BD4C168C943890607D46FF02001016168
:102810002046BDE87040FFF7DEBE70BD70477047D0
:1028200000680349884201D1FFF75ABB7047000096
:10283000002000407047704770470000F8B50168FD
:1028400004460868CA684B6910F00F0F4FF0000586
:1028500059D003F0010602F49077374365D0C107E1
:1028600005D0D10503D5216C41F001012164410758
:1028700005D5D90703D0216C41F0020121648107FD
:1028800005D5D90703D0216C41F00401216401076B
:1028900007D502F02001314303D0216C41F008013B
:1028A0002164216C00293AD0800604D5900602D517
:1028B000204601F0B9FB20684069216CC0F380100C
:1028C000090700D460B3204601F079FB2068406915
:1028D000400621D52068143050E8001F21F0400147
:1028E00040E80012002AF5D1A06BA8B16C4901653F
:1028F000A06BFFF765F8002811D0A06B016D01B047
:10290000BDE8F040084783060FD593060DD5204655
:10291000BDE8F84001F088BB2046FFF78DFFF8BD09
:102920002046FFF789FF2564F8BD266B2023012E82
:1029300079D1C60677D5D60675D50868486800905F
:102940004869400640D5A16B086840680004000C47
:10295000EAD0A28D8242E7D9E085C869B0F5807FD0
:102960002DD020680C3050E8001F21F4807140E821
:102970000012002AF5D12068143050E8001F21F021
:10298000010140E80012002AF5D12068143050E817
:10299000001F21F0400140E80012002AF5D184F820
:1029A0003E30256320680C3050E8001F21F01001F4
:1029B00040E80012002AF5D1A06BFEF7B8FFA08D09
:1029C000E18D401A81B229E0A08DE18D401A81B2DB
:1029D000E08D0028A8D00029A6D020680C3050E84F
:1029E000002F22F4907240E80026002EF5D12068D6
:1029F000143050E8002F22F0010240E80026002E9B
:102A0000F5D184F83E30256320680C3050E8002F63
:102A100022F0100240E80023002BF5D12046FFF7FA
:102A20000AFFF8BDFFE705062BD5150629D594F852
:102A30003D002128F5D1A068B0F5805F01D1206963
:102A4000B0B1206A411C2162216800784860E08CA6
:102A5000401E0004000CE084E3D12068C16821F02E
:102A60008001C1602068C16841F04001C160D8E7C1
:102A7000206A0088C0F308004860206A801C206239
:102A8000E5E74006CDD55006CBD5CA68204622F0F2
:102A90004002CA6084F83D3000F0C7F9C1E7000089
:102AA000C93E000870B5040004D094F83D0000252C
:102AB00010B106E0012070BD84F83C50204600F0C3
:102AC00023F8242084F83D002068C16821F40051D7
:102AD000C160204601F008FB2068016921F49041A3
:102AE00001612068416921F02A0141612068C168C3
:102AF00041F40051C1602564202084F83D0084F831
:102B00003E00002070BD00002DE9F04F87B0044664
:102B100014216846FDF774FC8048DFF8FC81143806
:102B2000D4F800C07D4A022603210723002507159B
:102B30004FF0400B4FF0006AC4455BD1D2F800C0A3
:102B40004CF0100CC2F800C0126802F0100205929E
:102B5000026842F002020260026802F0020205927C
:102B6000026842F0010202600068884600F001003D
:102B700005908020CDE900060DF1080C99468CE8FF
:102B8000200369466648FFF79FF83002CDE900064A
:102B90000DF1080C69468CE820036248FFF794F8B1
:102BA000624E6148D0463060C6E901A5C6E90357C8
:102BB0007561B561F561356230467562FEF7E2FF19
:102BC00008B1FEF7EEFAA663B463584E5648603675
:102BD0007830C6E903577561B561F5613562756294
:102BE00086E801093046FEF7CDFF08B1FEF7D9FAB5
:102BF000666338E0DFF838814FF48079C44536D118
:102C0000464A121FD2F800C04CF4802CC2F800C013
:102C1000126802F480220592026842F00402026007
:102C20000068029500F004000590CDE903134FF40D
:102C30004060CDE9000669463E48FFF745F83B4E47
:102C40003D48C0363060C6E901A5C6E90357756145
:102C5000C6E90659356230467562FEF793FF08B142
:102C6000FEF79FFAA663B46307B0BDE8F08F334B5D
:102C70009C45F9D1136843F020031360126802F0F9
:102C800020020592026842F040020260006802954C
:102C900000F0400005904FF48440CDE90006082084
:102CA000CDE9031069462648FFF70EF81E48254E69
:102CB00018384FF020683060C6E90185C6E903572F
:102CC0007561C6E90659356230467562FEF75AFFEE
:102CD00008B1FEF766FAA663B4631A4E124860366E
:102CE0006030C6E903577561B561F561356275629B
:102CF00086E801093046FEF745FF08B1FEF751FAB4
:102D00006663002205214720B463FFF76FF947206F
:102D1000FFF75EF9A8E700000010014044380240C8
:102D2000000402400000024040640240BC08002051
:102D300000480040000802402860024000140140A2
:102D400000180240DC09002090F83E30202B0ED104
:102D500059B152B190F83C30012B08D0012380F8D2
:102D60003C300023036301F045BA01207047022084
:102D700070477047704700002DE9F843044690F80B
:102D80003D001F4616460D4620284CD1C5B1BEB1A8
:102D900094F83C00012846D0012084F83C004FF014
:102DA0000008C4F84080212084F83D00FFF792F825
:102DB000A6848146E684A068B0F5805F03D004E075
:102DC0000120BDE8F883206928B12E465FF0000598
:102DD00084F83C800EE00026FAE78021204601F0CE
:102DE00053FAA0B9AEB116F8010B21684860E08C27
:102DF000401EE084E08C4B464FF000020097002814
:102E0000EBD14FF04001204601F03EFA30B10320F3
:102E1000D7E735F8020BC0F30800E6E7202084F876
:102E20003D000020CDE70220CBE77047FEE7000021
:102E3000104810B50E4901600321416000214FF494
:102E400010228160C0E903124FF400124261012296
:102E5000027642768176C17601774277FEF713FCDF
:102E6000002803D0BDE81040FEF79BB910BD00005C
:102E700000640040A0070020104810B50E49016012
:102E80000321416000214FF410228160C0E9031248
:102E90004FF4001242610122027642768176C176B9
:102EA00001774277FEF7EFFB002803D0BDE8104022
:102EB000FEF777B910BD000000680040C807002089
:102EC0001D4808B5016841F400110160016801F472
:102ED00000110091016841F4800101600068002246
:102EE00000F48000009005210C20FFF77FF80C20F3
:102EF000FFF76EF8002205213920FFF777F8392017
:102F0000FFF766F8002205213A20FFF76FF83A2014
:102F1000FFF75EF8002205214520FFF767F84520FE
:102F2000FFF756F8002205214620FFF75FF8BDE8BD
:102F300008404620FFF74CB83038024010B59CB02E
:102F40001C2216496846FDF742FA0021684602F045
:102F50004EFE134C11491C2220601C3107A8FDF7BE
:102F600036FA002107A802F042FE0C4960601C22DC
:102F700038310EA8FDF72BFA00210EA802F037FE1B
:102F80000649A0601C22543115A8FDF720FA002143
:102F900015A802F02CFEE0601CB010BDEC74000817
:102FA0000000002030B587B014216846FDF728FAEC
:102FB00025480024016841F002010160016801F028
:102FC00002010591016841F040010160016801F0D2
:102FD00040010591016841F001010160016801F0C3
:102FE00001010591016841F008010160016801F0EB
:102FF00008010591016841F004010160016801F0D8
:1030000004010591016841F08001016000680F4DE5
:1030100000F080000122059011032846FEF754FFBE
:103020000022E9142846FEF74FFF4FF4C0500090ED
:103030000120CDE901040220039069462846FEF7ED
:1030400043FE07B030BD000030380240001C024093
:103050000C4810B50A4901604FF4E131416000218C
:1030600081600C22C160C0E904128161C161FFF777
:1030700019FD002803D0BDE81040FEF792B810BD3E
:1030800000100140F00700200D4810B50B49016009
:103090000C49416000214FF480628160C0E9031255
:1030A0000422C0E90521C161FFF7FCFC002803D020
:1030B000BDE81040FEF775B810BD000000480040A4
:1030C00034080020A08601000C4810B50A490160B0
:1030D0004FF4E1314160002181600C22C160C0E900
:1030E00004128161C161FFF7DDFC002803D0BDE857
:1030F0001040FEF756B810BD0014014078080020BB
:10310000FEE70000401AB0F5805F02DDA0F5005038
:1031100004E010F5805F01DA00F5005000EE100ABF
:10312000DFED030AB8EEC00A20EE200A7047000067
:10313000DB0F493AFEE70000A0B1D0ED071AC0ED61
:10314000081A90ED061A80ED071AC0ED040A80ED0A
:10315000050A30EEC00A80ED060A017829B101297E
:1031600031D064E09FED330A7047D0ED010A60EE84
:10317000801AC0ED0C1AD0ED0D0A90ED022A42EE35
:10318000000A30EE410AC0ED0D0A90ED031A20EE60
:10319000011A80ED0E1A90ED100AF4EEC00AF1EE5D
:1031A00010FA09DCB1EE400AF4EEC00AF1EE10FAB2
:1031B00002D390ED0D0A01E080ED0D0A31EE800A98
:1031C00030EE010A21E070EE410A90ED012AF0EEA6
:1031D000002A20EE822A80ED0C2AD0ED020A60EE51
:1031E000800A01EE620AC0ED0D0A90ED031A72EE3C
:1031F000200A30EE210A20EE010A80ED0E0A30EEA0
:10320000800AD0ED0F0A30EE200A80ED0F0AD0EDD3
:10321000110AB4EEE00AF1EE10FA06DCF1EE600AF3
:10322000B4EEE00AF1EE10FA01D2C0ED0F0A90ED13
:103230000F0A70470000000000280FD00170C0ED99
:10324000100A80ED110A9FED060A80ED080A80ED54
:10325000070A80ED060A001D80EC031A7047000083
:1032600000000000002801DC404200B2704700006E
:1032700070B5194CB4F90000FFF7F4FF4FF42F7547
:10328000A84217DCB4F90200FFF7ECFFA84211DCFA
:10329000B4F90400FFF7E6FFA8420BDCB4F906001E
:1032A000FFF7E0FFA84205DC207A18B1607A08B188
:1032B000002070BD002020806080A080E08002217E
:1032C00021726172A081E0812082A074E074A082EA
:1032D0006081012070BD0000A40B00200288C2F3B1
:1032E0000A02A2F580620A8042788378D20842EA14
:1032F0004312C2F30A02A2F580624A808278C37840
:10330000920942EA8302037942EA8322C2F30A0263
:10331000A2F580628A8002794379520842EAC31298
:10332000C2F30A02A2F58062CA804279C2F3011296
:103330004A72427992090A72C2888A810289CA81D4
:1033400042890A82027B8A74427BCA74C2898A8259
:10335000008AC0F30A00A0F5806048817047000031
:10336000064D4FF400644FF4FA7621462846FEF7E6
:10337000A3FD304602F028FCF7E70000001C0240E5
:10338000B8B1D0ED071AC0ED081A90ED061A80ED1D
:10339000071AC0ED040A80ED050A30EEC00A10EEEF
:1033A000101ADFED3F0AB1F18B4F05DD30EE600AF8
:1033B00009E09FED3C0A704710EE101A11F16A5FA8
:1033C00001D930EE200A80ED060A017811B10129F9
:1033D0002FD062E090ED010AD0ED060A60EE201ACF
:1033E000C0ED0C1A90ED0D0A90ED022A02EE200AB3
:1033F00070EEC10A80ED0D0A90ED031A20EE811ADD
:1034000080ED0E1AD0ED100AB4EEE00AF1EE10FADB
:1034100006DCF1EE600AB4EEE00AF1EE10FA01D239
:10342000C0ED0D0A90ED0D0A31EE800A30EE010A72
:1034300021E070EE410A90ED012AF0EE002A60EEE4
:10344000820AC0ED0C0A90ED022A22EE002A01EE5B
:10345000620A80ED0D2A90ED031A70EE820A30EEBA
:10346000210A20EE010A80ED0E0A30EE800AD0ED2E
:103470000F0A30EE200A80ED0F0AD0ED110AB4EEEB
:10348000E00AF1EE10FA06DCF1EE600AB4EEE00AB2
:10349000F1EE10FA01D2C0ED0F0A90ED0F0A70475D
:1034A000000000460000000010B5040039D002F012
:1034B00021FB0022C4F8300302EBC20000EB021033
:1034C00004EBC003186900881886B3F84010FFF7B2
:1034D00019FE521C83ED070A042AEDDB5FF00000A1
:1034E00000EBC00101EB001104EBC101401C0A69B3
:1034F0000428B2F9022000EE102AB8EEC00A81EDCD
:10350000050AEDDBD4F898030188A1F5B051AF3975
:10351000A4F8A413008841F2AF61FFF7F3FD84ED36
:10352000E80A10BD70B504002DED068B7DD0002596
:10353000E8B202F0E3FA05EBC50101EB051104EB7B
:10354000C1016D1C0861042DF2DB02F0E1FAC4F840
:10355000980302F0F3FA00259FED608ADFED608AA0
:103560009FED609ADFED609A9FED60AADFED60AAA3
:10357000C4F89C0305EBC50000EB051004EBC00686
:1035800006F14400B0EE482AF0EE681AB2EE041AD2
:10359000F0EE490AB0EE690A0021FFF74DFE06F190
:1035A0008C00B0EE482AF0EE481AB0EE081AF0EEA1
:1035B0004A0AB0EE6A0A0021FFF73EFE6D1C042D98
:1035C000D8DBF0EE481AB0EE612A9FED4A0AB0EE61
:1035D000401ADFED490A002104F55470FFF72CFE74
:1035E00002F080FAC4F8B80302F06EFAC4F8BC0323
:1035F00002F07CFAC4F8C0034FF4AF60A4F84000B6
:1036000041F6CA209FED3D8BA4F8080140F2BA7044
:10361000A4F8D00141F22720A4F89802B0EE481A8D
:10362000F0EE681AB0EE480A00E053E0F0EE680AE7
:1036300001F01AF851EC100BFDF786F89FED319B65
:10364000B0EE480AF0EE680AB0EE491AF0EE691AD8
:10365000C4F8A80301F008F851EC100BFDF774F85A
:103660009FED2AABB0EE490AF0EE690AB0EE4A1AB5
:10367000F0EE6A1AC4F8AC0300F0F6FF51EC100B40
:10368000FDF762F8B0EE491AF0EE691AB0EE480A9A
:10369000F0EE680AC4F8B00300F0E6FFB0EE408A2E
:1036A000F0EE608AB0EE4A1AF0EE6A1AB0EE490AFD
:1036B000F0EE690A00F0D8FFB0EE401AF0EE601AA2
:1036C00053EC182B51EC110BFCF7A5FEFDF73CF861
:1036D000C4F8B403BDEC068B70BD00000000000010
:1036E0000AD7A33B0000FA4400E02B460000164432
:1036F0000000E14400C05A450000FA430000000009
:103700000000F03F0000000000000000000000008A
:103710000000F0BF2DE9F04106462DED028B00259B
:103720009FED268B4FF47A7705EBC50000EB051073
:1037300006EBC00494ED0E0B51EC100BFCF7A2FF4E
:1037400000B200EE100A208EF8EEC00A00EE100A59
:1037500004F18C00B8EE400AFFF712FE2069D4EDA8
:10376000320AB0F9020000EE100A04F14400B8EE8B
:10377000C00AFFF7E1FCD6F8C0034088B0FBF7F0C1
:10378000FCF773FF53EC182BFCF7AEFF0ED20D497C
:10379000D4F88000884202DD9FED0B0A04E00B495B
:1037A000884203D99FED0A0A84ED200A6D1C042D7E
:1037B000BADBBDEC028BBDE8F08100000000000028
:1037C00000002B4000C0DA4500C0DA4500C0DAC571
:1037D00000C0DAC52DE9F04704002DED0A8B7DD03D
:1037E0004FF4805142F21072D4F83003FE4EFF4D78
:1037F000B0F9023000274FF001095BB1934207DCBA
:10380000B0F90030934203DCB0F90400904209DDC6
:103810002F7009E00388002BF2D18388002BF3D1AD
:10382000012202E085F8009000223046FEF74CFBB2
:10383000EF800026B846AF812046FDF781FB94ED6E
:10384000D10ABDEEC00A10EE100A688094EDD20ACB
:10385000BDEEC00A10EE100AA880D4F83003B0F90B
:10386000040000F1C801DFEDE20AB1F5C87F08D914
:103870002978012902D0A5F8068029E0E9880844C2
:1038800025E094EDE80ADB4A10EE101A914204DAC2
:1038900010EE101AD84A9142F0D904F55470FFF78F
:1038A0004BFCD4F83003B0F9040000EE900AB5F9EF
:1038B0000600F8EEE00A70EEC00A00EE100AB8EE5C
:1038C000C00A30EE800ABDEEC00A10EE100AE88091
:1038D000CA4894EDEA0A80ED000A00E017E2D4ED50
:1038E000EC0A824630EEC01A70EE600AB1EE400A71
:1038F00080ED011AC0ED020A80ED030A9FEDC08B36
:103900000AEB860797ED000AFCF7BAFCB5F904004C
:1039100000EE900AB5F9060001EE100AF8EEE00A92
:10392000B8EEC11A41EE000A10EE900AFCF7C9FE8B
:1039300041EC100BB0EE481AF0EE681A01F0B4F842
:10394000B0EE409AF0EE609A97ED000AFCF7D4FCD6
:10395000B5F9020000EE900AB5F9060001EE100A72
:10396000F8EEE00AB8EEC11A41EE000A10EE900A35
:10397000FCF7A7FE41EC100BB0EE481AF0EE681A07
:1039800001F092F853EC192B51EC100BFCF743FDAE
:1039900041EC100B01F0B0FE51EC100BFCF772FE85
:1039A00000B224F8160000F0EDFCA989761C08444A
:1039B000F6B2A881042EA3D30004000C7DD02869A0
:1039C000401C2861052879D30520286194EDEA0A76
:1039D000FCF792FCB5F9020000EE900AB5F906007A
:1039E000B8EEE08A00EE900AF8EEE00A00EE808A77
:1039F00094EDEA0AFCF744FCB5F90400F0EE400A45
:103A000000EE100AB5F9060001EE100AB8EEC00A81
:103A1000B8EEC11A01EE200AF0EE480A00F01CFFD1
:103A200010EE100AFCF74DFEC4E90A0194EDEA0A13
:103A3000FCF762FCB5F9020000EE900AB5F9060049
:103A4000B8EEE08A00EE900AF8EEE00A00EE808A16
:103A500094EDEA0AFCF714FCB5F90400F0EE400A14
:103A600000EE100AB5F9060001EE100AB8EEC00A21
:103A7000B8EEC11A01EE600AF0EE480A00F0ECFE62
:103A800010EE100AFCF71DFEC4E93C0194EDEA0AB1
:103A9000FCF732FCB5F9020000EE900AB5F9060019
:103AA000B8EEE08A00EE900AF8EEE00A00EEC08A76
:103AB00094EDEA0AFCF7E4FB01E0BCE049E0B5F96B
:103AC0000400F0EE400A00EE100AB5F9060001EE1F
:103AD000100AB8EEC00AB8EEC11A01EE600AF0EEA4
:103AE000480A00F0B9FE10EE100AFCF7EAFDC4E93E
:103AF0006E0194EDEA0AFCF7FFFBB5F9020000EE57
:103B0000900AB5F90600B8EEE08A00EE900AF8EEE9
:103B1000E00A00EEC08A94EDEA0AFCF7B1FBB5F9C1
:103B20000400F0EE400A00EE100AB5F9060001EEBE
:103B3000100AB8EEC00AB8EEC11A01EE200AF0EE83
:103B4000480A00F089FE10EE100AFCF7BAFDC4E93D
:103B5000A0019FED2DCA9FED2DAB9FED2EBB9FEDDC
:103B60002F9B0026F0EE008AF6EE00CA06EBC60098
:103B700000EB061004EBC005E869FCF7A2FD95ED2B
:103B80000A1B53EC112BFCF7E7FCFCF7DDFD00EE04
:103B9000100ABDEEC08A18EE100A00B200F0F2FB67
:103BA00000EE100AF8EEC00A94EDEB0AF4EEC00A3B
:103BB000F1EE10FA42DB18EE100A00B200F0E2FB60
:103BC00000EE100AD4EDED0AB8EEC00AB4EEE00A39
:103BD000F1EE10FA32D2D4F8B003FCF772FD95ED95
:103BE0000A1B53EC112B1DE0001C02405400002066
:103BF00000000000CDCCCC3DCDCCCCBDB80E00201B
:103C0000000000000000004000000046000000002E
:103C10000000E03F00000000000000000000000085
:103C20000000C040FCF79BFCFCF78EFD2862FF20E3
:103C3000A11908720CE0C5F810808AE795ED0A0B0F
:103C400051EC100BFCF780FDA119286281F8089057
:103C500095ED080AD4EDEC0AB4EEE00AF1EE10FAA4
:103C600003DD00EEE80A85ED080AD4EDEC0AB1EEBA
:103C7000601AB4EEC10AF1EE10FA03D800EEA80AF9
:103C800085ED080A94EDEC1AF0EE400AB5F8400014
:103C900080EE810A60EE0C0A00EE100AB8EE400ACF
:103CA00000EEAC0A10EE100AFCF70BFD53EC1A2BD9
:103CB000FCF7B1FBFCF7E6FC00B2FCF7C5FC41ECFD
:103CC000100B53EC1B2B85ED0E0BFCF70DFD95ED4A
:103CD0000E0B53EC192B51EC100B02D2FCF79BFB93
:103CE0000EE0FCF719FD0DD895ED0E0BB0EE491A5C
:103CF000F0EE691A53EC112B51EC100BFCF72CFC75
:103D0000C5E90E01761CF6B2042EFFF42FAFBDEC10
:103D10000A8BBDE8F087000010B5502080F31188B1
:103D2000BFF34F8FBFF36F8F03F02EFA18B1044922
:103D30004FF080500860002080F3118810BD000013
:103D400004ED00E030B593B030216846FCF758FB35
:103D500014210CA8FCF754FB1D480025016841F014
:103D600080510160006800F080501190194801688E
:103D700041F4804101600068022400F48040119009
:103D800001200090000401908001CDE9064006204A
:103D90000890A820CDE9090404200B906846FEF79E
:103DA00063FA08B172B6FEE70CA90F2081E8310072
:103DB0004FF4A0500F904FF48050109005210CA8A4
:103DC000FEF746F9002801D072B6FEE713B030BD09
:103DD00040380240007000400548016841F470011D
:103DE000016003494FF000608039086070470000AF
:103DF00088ED00E00148FEF75EBC00009C0A002050
:103E0000F0B50268254C264D264E274F274B4FF024
:103E1000804CA04209D0604507D0A84205D0B042EE
:103E200003D0B84201D0984204D122F0700E4A6803
:103E300042EA0E02A0421BD0604519D0A84217D01A
:103E4000B04215D0B84213D0984211D0184DA842B4
:103E50000ED0184DA8420BD0174DA84208D0174DD0
:103E6000A84205D0164DA84202D0164DA84203D153
:103E700022F44075CA682A434D6922F080022A4321
:103E800002608A68C2620A688262A04201D09842D7
:103E900001D10969016301214161F0BD00000140C8
:103EA0000004004000080040000C004000040140F5
:103EB000004001400044014000480140001800401B
:103EC000001C00400020004010B5806B0021C1851F
:103ED000C184FEF7B1FC10BD70B5846B20684069E9
:103EE00094F83D10C0F3C0100025212904D118B169
:103EF000E584204600F08AF82068406994F83E1076
:103F0000C0F38010222904D118B1E585204600F0C5
:103F100056F8206C40F0100020642046FEF78CFC20
:103F200070BD10B50146806B09680968C9052FD4BA
:103F30000021C18501680C3151E8002F22F4807204
:103F400041E80023002BF5D10168143151E8002F1E
:103F500022F0010241E80023002BF5D10168143161
:103F600051E8002F22F0400241E80023002BF5D158
:103F7000202180F83E10016B012909D101680C3124
:103F800051E8002F22F0100241E80023002BF5D168
:103F9000016B012902D0FEF7ECFE10BD818DFEF70A
:103FA0004AFC10BD10B5806B016B012902D0FEF7F1
:103FB000E1FE10BD818D4908FEF73DFC10BD016892
:103FC0000C3151E8002F22F4907241E80023002BBD
:103FD000F5D10168143151E8002F22F0010241E8C7
:103FE0000023002BF5D1016B012909D101680C31A7
:103FF00051E8002F22F0100241E80023002BF5D1F8
:10400000202180F83E1000210163704701680C31C7
:1040100051E8002F22F0C00241E80023002BF5D127
:10402000202180F83D10704708B590F83E102229F5
:1040300001D0022008BD82684FF480539A4201D11A
:10404000016921B1816A9A421BD04AB10AE0026833
:10405000816A5268C2F308020A80816A891C08E0FA
:10406000026972B10268526802F07F020A70816AC6
:10407000491C8162C18D491E0904090CC18503D008
:1040800019E002685268F1E70168CA6822F020026C
:10409000CA600168CA6822F48072CA6001684A690D
:1040A00022F001024A61202180F83E10016B0129B3
:1040B00003D0FEF75EFE002008BD00210163016809
:1040C0000C3151E8002F22F0100241E80023002BB0
:1040D000F5D101680A68D20602D50A6849680091DC
:1040E000818DFEF7A8FBE6E770B50446006801691C
:1040F000E26821F44051114301612169A068E2693D
:1041000008436169114308432168CA6849F20C6396
:104110009A430243CA6020684169A26921F4407150
:104120001143416131492068884202D030498842B8
:1041300002D1FEF757F801E0FEF744F8E2690023E8
:10414000192164253226B2F5004F626828D0A0FB01
:104150000101930F9200FCF709F90146B0FBF5F05D
:104160006FF01802504301EB800006EB0010B0FB2B
:10417000F5F000F0F002B1FBF5F002EB0012B1FB3C
:10418000F5F06FF01803584301EB800006EB0010C8
:10419000B0FBF5F000F00F0021681044886070BD9E
:1041A000A0FB010192185B41FCF7E0F80146B0FB6F
:1041B000F5F00201B1FBF5F06FF01803584301EB85
:1041C000800006EBC000B0FBF5F000F0F80002EB59
:1041D0004002B1FBF5F0584301EB800006EBC00054
:1041E000B0FBF5F000F00700D6E70000001001403A
:1041F0000014014038B581628285002513460446CB
:104200000564222084F83E00A26B1C48D063A26B98
:104210001B481064A26B1B48D064A06B0A4605655E
:104220002168A06B091DFDF717FD20680168406833
:10423000009084F83C50206948B120680C3050E868
:10424000001F41F4807140E80012002AF5D1206877
:10425000143050E8001F41F0010140E80012002A2C
:10426000F5D12068143050E8001F41F0400140E8CB
:104270000012002AF5D1002038BD0000233F0008BD
:10428000A53F0008D93E00082DE9F04198461746A1
:104290000E460446069D27E0681C25D02DB1FDF78B
:1042A00019FEA0EB0800A8421ED920680C3050E887
:1042B000001F21F4D07140E80012002AF5D12068D7
:1042C000143050E8001F21F0010140E80012002ADC
:1042D000F5D1202084F83D0084F83E00002084F8C9
:1042E0003C000320BDE8F0812068006836EA000049
:1042F00004D00020B842CFD00020F3E70120F9E736
:104300000148FEF79BBA000078080020FEE703B4DE
:1043100001984100009850EAC12018BF04204A0DBE
:1043200018BF40F0010040F2FF72B2EB515F08BFCE
:1043300040F00200012808BF052002B0704741008C
:10434000080218BF04200A0E18BF40F001004FF009
:104350007F4232EA010108BF40F00200012808BF95
:10436000052070470907090E002804DB00F1E02052
:1043700080F80014704700F00F0000F1E02080F892
:10438000141D7047002801DA404200B27047000057
:1043900070B59B482DED020B2DED068B079D25F08A
:1043A0000044A04218DC9748844202DC0AD10698F7
:1043B00040B19DED060BBDEC068B02B0BDE8704030
:1043C00001F06EBA002DCCBF9FED8F0B9FED900BCF
:1043D000BDEC068B02B070BD8F48A04215DD8F4842
:1043E000A042D8BF4FF0FF3458DD9DED060B51ECD5
:1043F000100BFFF78CFF042808BF01F085FA9DED34
:10440000060BBDEC068B02B070BD9DED060B51ECAA
:10441000100B01F04DFBCDE9060181489FED828B29
:10442000A0423CDD8248A0421FDD00249FED82AB0C
:104430009DED060B53EC1A2B51EC100BFBF7EBFF29
:104440009DED060B41EC190B53EC1A2B51EC100BA4
:10445000FCF788F853EC182BFCF77EF853EC192B7B
:10446000FCF753FACDE9060149E09DED060B012466
:1044700053EC182B51EC100BFBF7CDFF9DED060B09
:1044800041EC190B53EC182B51EC100BFCF764F8B2
:1044900053EC192BFCF739FACDE906012FE06848F7
:1044A000A0421FDD02249FED689B9DED060B53EC9F
:1044B000192B51EC100BFCF755F853EC182BFBF7AC
:1044C000AAFF9DED060B41EC180B53EC192B51EC98
:1044D000100BFCF741F853EC182BFCF716FACDE95A
:1044E00006010CE09DED060B032453EC102B9FED11
:1044F000580B51EC100BFCF708FACDE906019DEDC5
:10450000060B53EC102B51EC100BFCF72BF841EC85
:10451000180B53EC182BFCF725F841EC190B4E48FF
:104520000621B0EE490AF0EE690A784401F021F95B
:1045300053EC182B51EC100BFCF714F841EC180B52
:104540004648B0EE490AF0EE690A0521784401F0C8
:1045500010F953EC192B51EC100BFCF703F841EC5C
:10456000100B51EC180B53EC102B002C0EDAFBF750
:1045700052FF9DED061B53EC112BFBF7F3FF9DED56
:10458000061B53EC112BFBF7EAFF35E0FBF743FF6B
:104590009DED061B53EC112BFBF7E4FF41EC100BD8
:1045A0002F48784400EBC40090ED001B51EC100B39
:1045B00053EC112BFBF7D0FF9DED061B53EC112B99
:1045C000FBF7CAFF41EC100B2648784400EBC4000F
:1045D00090ED001B51EC100B53EC112BFBF7BFFFC0
:1045E00041EC100B002DA2BFBDEC068B02B070BDDC
:1045F00051EC100B81F0004141EC100B01E7000081
:10460000000010440000F07F182D4454FB21F93FB6
:10461000182D4454FB21F9BF0000DC3F0000203E70
:104620000000F33F00000000000000000000F03F29
:104630000000E63F00000000000000000000004015
:104640000080034000000000000000000000F83F70
:10465000000000000000F0BF42390000F838000000
:10466000823800003A38000070B56B4E2DED040B17
:104670002DED028B82B0DDF81CC0DDE905235C4224
:104680002CF000411C4341EAD474049D22F0004008
:10469000B44205D86C422C4340EAD474B4420BD9DE
:1046A0009DED061B9DED040B02B0BDEC028B04B02A
:1046B000BDE8704001F0FEB8ACF14054A4F17F6455
:1046C0001C430BD0022404EAAC7444EAD2740543C0
:1046D0009FED538B9FED542B07D015E09DED040B00
:1046E00051EC100B01F042F942E0002C11BF012CFB
:1046F0009DED040B02B0BDEC028B04BF04B070BD95
:10470000022C38D0032C3BD00B439FED491B9FED6F
:104710004A0B0AD0B14218D1B04209D121F08041F0
:1047200020F08040079105900FE0002A15DA10E094
:10473000434B7B44002C08BF93ED000B0DD0012CA4
:1047400010D0022C17D0032C1AD0B0421DD1002A51
:1047500003DAB0EE410AF0EE610A02B0BDEC028B62
:1047600004B070BD93ED000B51EC100B81F00041D3
:1047700041EC100BF1E7B0EE480AF0EE680AECE706
:10478000B0EE420AF0EE620AE7E7401A00153C2854
:10479000C8BF8DED000B19DCBCF1000FBEBF10F1DE
:1047A0003C0F9FED290B8DED000B0FDB9DED060BF4
:1047B00053EC102B9DED040B51EC100BFCF7A5F8FE
:1047C00001F076F901F0D2F8CDE90001002C08BF24
:1047D0009DED000BC1D0012C10D0022C9FED1C0BC5
:1047E00053EC102B9DED000B51EC100B0DD0FBF793
:1047F000B3FE53EC182BFBF7AFFEB9E7019880F03E
:10480000004001909DED000BA7E7FBF7A5FE53ECE0
:10481000182BFBF7A4FEABE70000F07F00000000C0
:10482000182D4454FB210940182D4454FB2109C084
:10483000182D4454FB21F9BF182D4454FB21F93F96
:104840006A370000000000000000000000000000C7
:10485000075C143326A6A13C10EE100A10B510EE2A
:10486000901A4FF0684202EB40032DED028BB3F13A
:10487000654F3CBF02EB4102B2F1654F7CD200BFF5
:10488000C0F3C753C1F3C7529A1A1B2A09DD10F0AF
:10489000004F14BF9FED6E0A9FED6E0ABDEC028BB8
:1048A00010BD12F11A0F1BDA11F0004F09D010F0F1
:1048B000004F0CBF9FED680A9FED680ABDEC028BAC
:1048C00010BD80EE208A18EE100AFFF738FD04288C
:1048D00008BF01F02DF8B0EE480ABDEC028B10BD08
:1048E0004200B2EB410F37D910F0004F19BFDFED96
:1048F0005C1A9FED5C1ADFED5C1A9FED5C1AB0EE5E
:10490000602A0A46F1EE400A80F00041B0EE420A09
:1049100010460A1A5200B2F1807F34D2484010F09B
:10492000004FDFED532A9FED533A1DBFBEEE002A24
:1049300071EEE21A31EE431AB6EE002A04BF71EEB0
:10494000A21A31EE031AF0EE402A42EE602A40EE3F
:10495000020A82EEA02A18E011F0004F04BF9FED7A
:10496000461AF0EE411AD4D010F0004F1CBFDFED14
:10497000431A9FED431A00E026E004BFDFED411A21
:104980009FED411AC5E780EE202A22EE020ADFEDF4
:104990003F0ADFED3F2ABDEC028B40EE202ADFED1F
:1049A0003D0A40EE220ADFED3C2A40EE202ADFEDF0
:1049B0003B0A40EE220A22EE000A00EE201A31EEF7
:1049C000020A30EE210A10BD4FF07F42B2EB400FD9
:1049D00028BFB2EB410F05D2BDEC028BBDE8104001
:1049E00000F0A2BF40EA01035B0008BF41F0FF41B5
:1049F0000BD0B2EB400F08BFB2EB410F08D120F053
:104A0000804000EE100A21F0804100EE901A37E756
:104A1000B2EB400F12BF5FEA410240F0FF4001F0ED
:104A200000413FF42DAF4A0092EA40033FF528AF22
:104A3000002AACBF9FED1A1A9FED1A1A20EE010A48
:104A400060EE810A10EE100A10EE901A18E70000CE
:104A5000DB0FC9BFDB0FC93FDB0F4940DB0F49C08C
:104A60000000C9BF22AAFDB90000C93F22AAFD3932
:104A70000060ED3EC30ACE3700000000000049C0D0
:104A800022AA7DBA0000494022AA7D3A2DAD65BD1B
:104A90008FB8D53D0FB511BE61C84C3EA8AAAABEBD
:104AA0000000804F0000802F2DE9F04D2DED040B0C
:104AB0002DED0E8B96B0DDE92550279CDDF890A0FA
:104AC00025F0004624F00048BAF1000F14BF012180
:104AD000002101EB4502FC4953184A1093422AD3A6
:104AE000002814BF0123002303EB44030B44F749C0
:104AF0008B4220D358EA00019FEDF59B76D0DFF87A
:104B0000D8B35D4503D1BAF1000F05D188E0BAF101
:104B1000000F08BF002100D0012101EB450111F574
:104B2000001F08D8002814BF0121002101EB440117
:104B300011F5001F0BD99DED261B9DED240B16B022
:104B4000BDEC0E8B04B0BDE8F04D00F0B3BE002705
:104B5000002DBCBFE149884521DAE1498845A8BF5D
:104B600002271CDAC3451ADCDE4901EB285114295F
:104B700008DDC1F1340220FA02F101FA02F28242A8
:104B80000DD108E058B9C1F1140228FA02F101FA76
:104B900002F2424503D101F00101C1F1020756EAD8
:104BA0000A0124D1002C22DA002D18BF022F01D0D7
:104BB000012F0AD0022000F0D3FE16B0BDEC0E8B00
:104BC00004B0BDE8F04D00F053BE022000F0C8FE76
:104BD00000F04EFE51EC100B81F0004141EC100B47
:104BE00016B0BDEC0E8B04B0BDE8F08D18E09FED63
:104BF000BEAB9FEDBF8B002871D1B848804522D154
:104C000005F1804010F5801008BFBAF1000F07D001
:104C1000B3450ADC002CA8BF9DED260BE0DA0DE0C1
:104C2000B0EE490AF0EE690ADAE7002C06DA9DEDEB
:104C3000260B51EC100B81F000416FE0AE48784438
:104C400090ED000BCCE7D8454DD1002C48DA2EB1C1
:104C500086423AD1BAF1000F42D126E0BAF1000FF4
:104C600013D0022000F07CFE00F03EFE8DED020B22
:104C70009DED240B8DED000B10EE900A039961F36E
:104C80001E0003909DED020BAAE78DED02AB9DED9A
:104C9000240B1AEE901A10EE900A8DED000B61F3C2
:104CA0001E0003909DED020B9AE78DED028B9DEDAA
:104CB000240B18EE901A10EE900A8DED000B61F3A4
:104CC0001E0003909DED020B8AE709DA9DED240B8F
:104CD00051EC190B53EC102BFBF717FE1EE020E0F4
:104CE0009DED240B7CE786421BDAB4F1804F0DD09A
:104CF000A4F10050B0F1FF5013D1002D11DB9DED58
:104D0000240B51EC100B01F019FC07E09DED240B76
:104D100053EC102B51EC100B00F0C2BC41EC100B0B
:104D20005EE79DED240B51EC100B00F0C1FEBAF1D3
:104D3000000FCDE90E0142D19FED710B46B3A6F1F4
:104D4000E040B0F17F600CD05E4538D1002D00DA34
:104D5000A7B3022F0CBF01204FF0FF30FBF774FC0C
:104D6000DCE7002D01DD002C0DDA002D01DD002C2B
:104D70001FDB002D16DA002C14DB012F08BF9FED7E
:104D8000620B3FF42DAFB0EE4A0AF0EE6A0A27E755
:104D9000022F18BF002D0CD0012F0AD1002DFFF6D5
:104DA0001FAF06E0002DB8BF002C08DA012F3FF43A
:104DB00017AFB0EE480AF0EE680A11E71BE00120D9
:104DC00000EBE57050EA070115D0791EB0EE498A74
:104DD000F0EE698A084308BF9FED4D8B4E480025D1
:104DE000804570DD4D494E48884514DDB0420DDBED
:104DF000002C19DB2FE0012000F0B2FD16B0BDEC55
:104E00000E8B04B0BDE8F04D00F05EBDB34502DC92
:104E1000002C09DC1FE0864202DA002C1BDA03E0DA
:104E20005E452BDD002C16DD022000F099FD00F020
:104E30005BFD8DED020B53EC1A2B51EC180BFBF7BD
:104E400091FBCDE900010399019861F31E000390E5
:104E50009DED020BC4E6022000F082FD00F054FD3F
:104E600010EE901A18EE900A8DED020B8DED008B6E
:104E700061F31E0003909DED020BB1E69DED0E0B5C
:104E800053EC192B51EC100BFBF766FB9FED260B37
:104E9000CDE9080153EC102B9DED080B51EC100BE4
:104EA000FBF760FB9FED221B53EC112BFBF757FB2D
:104EB0009DED081B53EC112BFBF754FB9FED1E1BC4
:104EC00053EC112B3CE08CE0FFFF1F00FFFF0F00B5
:104ED000000000000000F03F0000F03F0000F07F05
:104EE0000000404301FCFFFF000000000000F07FD5
:104EF00000000000000000005E3200000000000022
:104F00000000000000000080000000000000F0FF32
:104F1000000000000000F0BF0000E0410000F0438E
:104F2000FFFFEF3F00000000000000000000D03F46
:104F3000555555555555D53F000000000000E03F40
:104F4000FBF70DFB9DED080B41EC1A0B53EC102BFE
:104F500051EC100BFBF706FB53EC1A2BFBF702FB93
:104F600041EC1A0B9FEDFE0B53EC102B9DED080B43
:104F700051EC100BFBF7F6FA41EC1B0B9FEDFA0B13
:104F800051EC1A0B53EC102BFBF7ECFA41EC1A0B1B
:104F90009FEDF70B53EC102B9DED080B51EC100B14
:104FA000FBF7E0FA53EC1A2BFBF7D6FA41EC1A0B9D
:104FB00051EC1B0B53EC1A2BFBF72DFA0690CDE9A5
:104FC00006519DED060B53EC1B2B51EC100BFBF720
:104FD000C3FA53EC1A2BFBF7C2FA41EC100B00F0AA
:104FE000A1B90020B6F5801F0EDA9FEDE30B53EC5C
:104FF000102B9DED0E0B51EC100BFBF7B3FACDE926
:105000000E016FF034000E4600EB2650A0F2FF3781
:10501000C6F31300DA4940F07F6646F040568842F6
:10502000D8BF002408DDD7498142C8BF012403DC72
:105030000024A6F580167F1CD348784400EBC400FA
:105040000F9690ED00CB9DED0E0B53EC1C2B51EC0D
:10505000100BFBF781FA9DED0E0B41EC1B0B53EC93
:105060001C2B51EC100BFBF7D6F941EC100B51EC5B
:10507000190B53EC102BFBF748FC41EC1D0B51ECCA
:105080001B0B53EC1D2BFBF76DFA41EC1A0BBF48C1
:105090008DED10AB7844109590ED000B4FF0005063
:1050A00040EA660000EB84408DED080B00F500201F
:1050B00009909DED080B53EC1C2B51EC100BFBF7EA
:1050C0004BFA9DED0E1B53EC112BFBF748FA41EC0C
:1050D000100B53EC102B9DED100B51EC100BFBF74C
:1050E00041FA9DED080B41EC1C0B53EC102B9DED90
:1050F000100B51EC100BFBF735FA53EC1B2BFBF7A5
:105100002EFA53EC1C2BFBF727FA53EC1D2BFBF765
:1051100029FA41EC1C0B53EC1A2B51EC1A0BFBF740
:1051200021FA41EC1B0B9A480621B0EE4B0AF0EE37
:105130006B0A784400F01DFBB0EE401AF0EE601AE6
:10514000B0EE41DAF0EE61DA53EC1B2B51EC1B0BA5
:10515000FBF708FA53EC1D2BFBF704FA9DED100B3F
:1051600041EC1B0B53EC1A2B51EC100BFBF753F9D2
:1051700053EC1C2BFBF7F6F953EC1B2BFBF74BF90D
:105180009DED100B41EC1B0B53EC102B51EC100B55
:10519000FBF7E8F941EC1D0B9FED7FEB53EC1E2B69
:1051A000FBF739F953EC1B2BFBF735F90890CDE9E8
:1051B00008519DED080B53EC1E2B51EC100BFBF727
:1051C000CBF953EC1D2BFBF7C7F953EC1B2BFBF76B
:1051D000C6F99DED080B41EC1D0B53EC102B9DED1A
:1051E000100B51EC100BFBF7BDF941EC1B0B53EC12
:1051F0001A2B51EC1D0BFBF7B5F99DED080B41EC9B
:105200001A0B53EC102B51EC1C0BFBF7ABF953ECC6
:105210001A2BFBF700F941EC1A0B51EC1B0B53EC6A
:105220001A2BFBF7F8F80C90CDE90C519DED0C0B07
:1052300053EC1B2B51EC100BFBF78EF953EC1A2B94
:10524000FBF78DF941EC1B0B9FED550B53EC102B2D
:105250009DED0C0B51EC100BFBF784F941EC1A0B94
:105260009FED510B51EC1B0B53EC102BFBF77AF914
:1052700041EC1B0B9FED4E0B53EC102B9DED0C0BDB
:1052800051EC100BFBF76EF953EC1B2BFBF7C3F83B
:1052900041EC100B4848784400EBC40090ED001B33
:1052A00051EC100B53EC112BFBF7B5F841EC1B0B39
:1052B0003846FBF7C9F9CDE9080153EC1B2B51EC3B
:1052C0001A0BFBF7A8F841EC100B3C48784400EBB4
:1052D000C40090ED00CB51EC100B53EC1C2BFBF7F2
:1052E0009AF89DED081B53EC112BFBF794F80690F0
:1052F000CDE906519DED080B53EC102B9DED060BEF
:1053000051EC100BFBF728F953EC1C2BFBF724F99D
:1053100053EC1A2BFBF720F953EC1B2BFBF71FF96F
:1053200041EC100B9DED261B53EC102B8DED001B5B
:1053300000959DED260B51EC100BFBF713F99DED3D
:10534000000B41EC1A0B53EC102B9DED260B51EC8E
:10535000100BFBF701F99DED061B53EC112B2FE011
:10536000000000604715F73FFE822B654715F73FA9
:1053700044DF5DF80BAE543E0000000000004043E7
:105380008E9803007AB60B00422D0000082E000014
:105390007A2C00000000000000000000000008401F
:1053A000000000E009C7EE3FFD033ADC09C7EE3F0D
:1053B000F5015B14E02F3EBE062B0000C02A000062
:1053C000FBF7D0F853EC1A2BFBF725F89DED060BF5
:1053D00041EC1A0B53EC102B9DED000B51EC100B14
:1053E000FBF7C0F8CDE90C019DED0C0B51EC1A0B4D
:1053F00053EC102BFBF70FF8CDE902010C46AA493C
:105400008C422FDB611A084318D19DED0C0B53EC35
:10541000102B9DED020B51EC100BFBF79DF841ECAE
:105420001B0B9FEDA30B51EC1A0B53EC102BFAF74F
:10543000F2FF53EC1B2BFBF76FF92DD2022000F08B
:105440008FFA00F051FA10EE901A18EE900A8DEDD6
:10545000020B8DED008B61F31E0003909DED020B9E
:10546000FFF7BEBB944A24F00041914214D3934904
:10547000214408437FF4EFAC9DED0C0B53EC102B53
:105480009DED020B51EC100BFBF766F853EC1A2B59
:10549000FBF742F97FF6DFAC24F000408849894AE7
:1054A000002601EB205182422BDA481C4FF4801178
:1054B00021FA00F02044844AC0F30A517A44A1F250
:1054C000FF3192ED000B814A8DED080BCA4020EAB6
:1054D0000202C0F3130040F48010C1F1140120FA5D
:1054E00001F60992002CB8BF76429DED080B53ECF3
:1054F000102B9DED0C0B51EC100BFBF72DF8CDE9AB
:105500000C019DED0C0B51EC1A0B53EC102BFAF720
:1055100082FF9FED6F0B0890CDE9085153EC102BE3
:105520009DED080B51EC100BFBF71CF841EC1B0B2D
:105530009FED690B53EC102B9DED080B51EC100BFC
:10554000FBF710F89DED0C0B41EC1C0B53EC102BF2
:105550009DED080B51EC100BFAF7FEFF53EC1A2BE4
:10556000FAF7FDFF9FED5E1B53EC112BFAF7FAFFE4
:1055700053EC1C2BFAF74FFF41EC1A0B51EC1B0BB1
:1055800053EC1A2BFAF747FFCDE902019DED020B10
:1055900053EC1B2B51EC100BFAF7DEFF53EC1A2BDC
:1055A000FAF7DDFF9DED020B41EC1A0B53EC102BCB
:1055B00051EC100BFAF7D6FFCDE908014A489DEDF2
:1055C000080B0521784400F0D4F89DED081B51EC40
:1055D000100B53EC112BFAF7C5FF9DED021B53EC9A
:1055E000112BFAF7BCFFCDE906019DED020B53EC40
:1055F0001A2B51EC100BFAF7B5FF53EC1A2BFAF7F4
:105600000AFF9FED3B0B41EC1A0B53EC102B9DED69
:10561000060B51EC100BFAF79FFF9DED060B41ECCA
:105620001B0B53EC102B9DED020B51EC100BFAF7FA
:1056300099FF53EC1B2BFBF768F953EC1A2BFAF785
:105640008BFF9DED021B53EC112BFAF785FF53ECFA
:10565000192BFAF784FFCDE9020101EB0650011581
:105660000029C8BF039015DC9DED020B324651ECBA
:10567000100BFBF7B9F9FEF74AFE042808BF00F04B
:1056800043F932469DED020B51EC100BFBF7ACF9E0
:10569000CDE902019DED020B51EC180B53EC102BE0
:1056A000FAF760FFFFF73ABB0000904000000000EF
:1056B000FE822B654715973C00CC904000346F3F2D
:1056C00001FCFFFF0000E03FE0290000FFFF0F00AA
:1056D00000000000432EE63F396CA80C615C20BE40
:1056E000EF39FAFE422EE63F1828000000000000C5
:1056F000000000000000004000B52DED048BB0EE6E
:10570000409AF0EE609A83B051EC190BFBF783F9E5
:1057100041EC180B18EE100A18EE901A8DED008B64
:10572000002818BF0120084320F00040C0F17F602E
:1057300000F1E040C00F14D019EE101A19EE900AD3
:105740008DED009B002918BF0121084320F0004087
:10575000C0F17F6000F1E040C00F04BF012000F005
:10576000FFF8B0EE480A03B0F0EE680ABDEC048B17
:1057700000BD70B504462DED028B4D1E00EBC5003B
:10578000B0EE408AF0EE608A90ED000B35F0060036
:1057900017D053EC182B51EC100BFAF7E3FE41EC49
:1057A000100B6D1E04EBC50090ED001B51EC100BAF
:1057B00053EC112BFAF72FFE41EC100B35F00600DD
:1057C000E7D1022D36D0042D1CD0062D1CBFBDEC18
:1057D000028B70BD53EC182B51EC100BFAF7C2FE84
:1057E00094ED0A1B53EC112BFAF715FE53EC182B12
:1057F000FAF7B8FE94ED081B53EC112BFAF70BFEE9
:1058000041EC100B53EC182B51EC100BFAF7AAFEDD
:1058100094ED061B53EC112BFAF7FDFD53EC182BFE
:10582000FAF7A0FE94ED040B53EC102BFAF7F3FDFE
:1058300041EC100B53EC182B51EC100BFAF792FEC5
:1058400094ED021B53EC112BFAF7E5FD53EC182BEA
:10585000FAF788FE94ED001B53EC112BFAF7DBFDF1
:10586000BDEC028B41EC100B70BD0000000000008D
:105870009FED070B10B553EC102B9FED070B51EC70
:10588000100BFBF742F841EC100B10BD00000000BC
:105890000000000000000000000000000000F03FD9
:1058A00010B553EC102B51EC100BFAF7B4FD41EC92
:1058B000100B10BD10B553EC112B51EC100BFAF777
:1058C000AAFD41EC100B10BD9FED050B10B553EC7C
:1058D000102B51EC100BFBF718F841EC100B10BD1E
:1058E00000000000000000009FED050B10B553EC18
:1058F000102B51EC100BFAF735FE41EC100B10BDDC
:1059000000000000000000709FED050B10B553EC87
:10591000102B51EC100BFAF725FE41EC100B10BDCB
:10592000000000000000001030EE200A7047000068
:105930009FED020A20EE000A7047000000000010F0
:1059400002E008C8121F08C1002AFAD17047704748
:10595000002001E001C1121F002AFBD170470000A6
:105960000149086070470000F400002010B541ECC8
:10597000100BFEF70DFD51EC100B10BD08B54048A3
:10598000FBF70CFA4FF47A7000F01EF901F0F6FB09
:1059900000903B4A5FF0000000EBC00101EB4011BA
:1059A00002EB8101401C8B68C0B20428B3F90230BD
:1059B00000EE103AB8EEC00A81ED040AECD330488C
:1059C0004268B2F9001092F908204942514300EEB2
:1059D000101AB8EEC00A80ED050A4268B2F902104A
:1059E00092F909204942514300EE101AB8EEC00A5C
:1059F00080ED2E0A41688A8891F90A1012FB01F1A4
:105A000000EE101AB8EEC00A80ED570A4168CA8845
:105A100091F90B1012FB01F100EE101AB8EEC00A5A
:105A200080ED800AFBF708FA1648007818B314488E
:105A300090EDA30ABDEEC00A10EE101A90ED7A0A9E
:105A40000BB2BDEEC00A10EE101A90ED510A0AB268
:105A5000BDEEC00A10EE101A90ED280A09B2BDEE94
:105A6000C00A10EE100A00B2FBF74CF9012168469B
:105A700000F0B1F88DE700231A4619461846F3E7FF
:105A8000CC0B002054000020064801680648B1FBFA
:105A9000F0F2064802704FF47A72B1FBF2F1416005
:105AA000704700007400002040420F001C000020DE
:105AB00082B0CDE9000121F0004001909DED000B86
:105AC00002B051EC100B70470048704728000020CE
:105AD00000F00300024900EB800001EB400070473A
